:020000040800F2
:100000000028002015050008C1040008C9040008E4
:10001000D1040008D9040008E10400080000000031
:100020000000000000000000000000007125000832
:10003000E904000800000000512700089927000883
:100040005D0500085D0500085D0500085D05000808
:100050005D0500085D0500085D0500085D050008F8
:100060005D0500085D0500085D0500085D050008E8
:100070005D0500085D0500085D0500085D050008D8
:100080005D0500085D0500085D0500085D050008C8
:100090005D0500085D0500085D0500085D050008B8
:1000A0005D0500085D0500085D0500085D050008A8
:1000B0005D050008F5040008000000005D0500086B
:1000C0005D05000800000000000000005D0500085C
:1000D000000000005D0500085D050008000000004C
:1000E0005D0500085D0500085D05000800000000D2
:1000F0000000000000000000000000000000000000
:0C01000000000000000000005FF808F1A3
:1001100010B5054C237833B9044B13B10448AFF341
:1001200000800123237010BD60000020000000004B
:100130008C2D000808B5034B1BB103490348AFF3EE
:10014000008008BD00000000640000208C2D000825
:1001500080B485B000AFF860B9607A60FB68064A89
:100160001A60BB68054A1A607B6880221A6000BF6B
:100170001437BD4680BC70477C0000201C01002065
:10018000B0B58EB000AF00F0EBF900F033F800F03E
:1001900073F8144B07F11C041D460FCD0FC495E8EE
:1001A000070084E8070007F11C030021184601F04E
:1001B0001BFB03460C4A13600C4B3C461D460FCDFF
:1001C0000FC495E8070084E807003B460021184665
:1001D00001F00AFB0346064A136001F0FEFA00BF75
:1001E000FDE700BFB02D00081C030020D82D00083B
:1001F0002003002080B590B000AF07F1180328223B
:100200000021184602F0EAFC3B1D00221A605A60E9
:100210009A60DA601A610223BB610123BB6210237A
:10022000FB6202237B630023BB634FF46013FB6319
:1002300007F11803184600F053FC0346002B01D0C9
:1002400000F082F80F237B600223BB600023FB6079
:100250004FF480633B6100237B613B1D0221184604
:1002600000F0C0FE0346002B01D000F06DF800BF87
:100270004037BD4680BD000080B586B000AF07F1B5
:10028000080300221A605A609A60DA60174B9B6973
:10029000164A43F008039361144B9B6903F008036B
:1002A0007B607B68114B9B69104A43F004039361A8
:1002B0000E4B9B6903F004033B603B680022042162
:1002C0000B4800F0DBFB0423BB600123FB60002331
:1002D0003B6102237B6107F108031946044800F0E3
:1002E00051FA00BF1837BD4680BD00BF0010024064
:1002F000000C014080B582B000AF7860012001F0B1
:10030000BFFAFBE780B582B000AF786004210448F3
:1003100000F0CCFBC82001F0B3FA00BFF6E700BF45
:10032000000C014080B582B000AF78607B681B682C
:10033000044A934201D100F029F900BF0837BD46B5
:1003400080BD00BF0004004080B400AF72B600BFA3
:1003500000BFFDE780B584B000AF184B9B69174A1A
:1003600043F001039361154B9B6903F00103BB60EC
:10037000BB68124BDB69114A43F08053D3610F4BCA
:10038000DB6903F080537B607B6800220F216FF0F4
:10039000010000F0CCF90A4B5B68FB60FB6823F0BE
:1003A000E063FB60FB6843F00073FB60044AFB689A
:1003B000536000BF1037BD4680BD00BF0010024033
:1003C0000000014080B58EB000AF78600023FB6272
:1003D0000023BB62002387F83330344BDB69334A98
:1003E00043F00203D361314BDB6903F00203FB608E
:1003F000FB6807F1100207F114031146184600F0DC
:100400004DFF3B6AFB62FB6A002B03D100F032FF19
:10041000786304E000F02EFF03465B007B637B6B98
:10042000234AA2FB03239B0C013BBB62214B224AC4
:100430001A60204B40F2E732DA601E4ABB6A536012
:100440001C4B00221A611B4B00229A60194B0022A0
:100450009A61184800F070FF034687F8333097F828
:100460003330002B1BD1134800F0BEFF034687F842
:10047000333097F83330002B11D11D2000F073F981
:100480007B680F2B08D8002279681D2000F04FF9F7
:100490000A4A7B68136002E0012387F8333097F83B
:1004A000333018463837BD4680BD00BF00100240CB
:1004B00083DE1B43240300200004004004000020CE
:1004C00080B400AF00BFFDE780B400AF00BFFDE720
:1004D00080B400AF00BFFDE780B400AF00BFFDE710
:1004E00080B400AF00BFFDE780B400AF00BFBD46E1
:1004F00080BC704780B500AF024800F0C1FF00BF6C
:1005000080BD00BF2403002080B400AF00BFBD4603
:1005100080BC7047FFF7F8FF0B480C490C4A0023DA
:1005200002E0D458C4500433C4188C42F9D3094AA9
:10053000094C002301E013600432A242FBD302F015
:10054000ABFBFFF71DFE704700000020600000209D
:10055000302E000860000020FC110020FEE70000A3
:1005600080B500AF084B1B68074A43F010031360C7
:10057000032000F0D1F80F20FFF724FFFFF7EAFE79
:100580000023184680BD00BF0020024080B400AFA9
:10059000054B1B781A46054B1B681344034A13602E
:1005A00000BFBD4680BC7047080000206C030020DF
:1005B00080B400AF024B1B681846BD4680BC704734
:1005C0006C03002080B485B000AF78607B6803F0D6
:1005D0000703FB600C4BDB68BB60BA684FF6FF0398
:1005E0001340BB60FB681A02BB68134343F0BF6350
:1005F00043F40033BB60044ABB68D36000BF1437C8
:10060000BD4680BC704700BF00ED00E080B400AF85
:10061000044BDB681B0A03F007031846BD4680BC89
:10062000704700BF00ED00E080B483B000AF034628
:10063000FB7197F90730002B0BDBFB7903F01F02EE
:10064000064997F907305B09012000FA02F241F8E8
:10065000232000BF0C37BD4680BC704700E100E09E
:1006600080B483B000AF03463960FB7197F907305F
:10067000002B0ADB3B68DAB20C4997F9073012010C
:10068000D2B20B4483F800230AE03B68DAB208498F
:10069000FB7903F00F03043B1201D2B20B441A762C
:1006A00000BF0C37BD4680BC704700BF00E100E0D2
:1006B00000ED00E080B489B000AFF860B9607A6006
:1006C000FB6803F00703FB61FB69C3F10703042B1D
:1006D00028BF0423BB61FB690433062B02D9FB69E5
:1006E000033B00E000237B614FF0FF32BB6902FA5D
:1006F00003F3DA43BB681A407B699A404FF0FF313D
:100700007B6901FA03F3D9437B680B401343184616
:100710002437BD4680BC704780B582B000AF78609A
:100720007868FFF74FFF00BF0837BD4680BD80B532
:1007300086B000AF0346B9607A60FB7300237B612B
:10074000FFF764FF78617A68B9687869FFF7B2FFEC
:10075000024697F90F3011461846FFF781FF00BF98
:100760001837BD4680BD80B582B000AF0346FB712F
:1007700097F907301846FFF757FF00BF0837BD4607
:1007800080BD000080B48BB000AF7860396000237A
:100790007B6200233B6261E101227B6A02FA03F380
:1007A000FB613B681B68FA691340BB61BA69FB696E
:1007B0009A4240F050813B685B68974A93425ED012
:1007C000954A934275D8954A934258D0934A93429A
:1007D0006FD8934A934252D0914A934269D8914A32
:1007E00093424CD08F4A934263D88F4A934246D06B
:1007F0008D4A93425DD8122B2AD8122B59D801A2C8
:1008000052F823F07F080008590800086B08000818
:10081000AD080008B3080008B3080008B3080008D2
:10082000B3080008B3080008B3080008B3080008BC
:10083000B3080008B3080008B3080008B3080008AC
:10084000B3080008B308000861080008750800082C
:10085000764A934213D02CE03B68DB683B6229E088
:100860003B68DB6804333B6224E03B68DB680833A9
:100870003B621FE03B68DB680C333B621AE03B687D
:100880009B68002B02D104233B6213E03B689B680A
:10089000012B05D108233B627B68FA691A6109E0E4
:1008A00008233B627B68FA695A6103E000233B62DC
:1008B00000E000BFBB69FF2B01D87B6801E07B68CB
:1008C00004337B61BB69FF2B02D87B6A9B0002E08B
:1008D0007B6A083B9B003B617B691A680F213B697F
:1008E00001FA03F3DB431A40396A3B6901FA03F367
:1008F0001A437B691A603B685B6803F08053002BE6
:1009000000F0A9804A4B9B69494A43F00103936177
:10091000474B9B6903F00103BB60BB68454A7B6A98
:100920009B08023352F82330FB607B6A03F0030319
:100930009B000F2202FA03F3DB43FA681340FB60CB
:100940007B683D4A93420DD07B683C4A934207D076
:100950007B683B4A934201D1022304E0032302E077
:10096000012300E000237A6A02F003029200934020
:10097000FA681343FB602F497B6A9B080233FA68CD
:1009800041F823203B685B6803F48013002B06D0FA
:100990002C4B9A682B49BB6913438B6006E0294BAB
:1009A0009A68BB69DB43274913408B603B685B68EF
:1009B00003F40013002B06D0224BDA682149BB69EF
:1009C0001343CB6006E01F4BDA68BB69DB431D496C
:1009D0001340CB603B685B6803F40033002B06D008
:1009E000184B5A681749BB6913434B6006E0154B17
:1009F0005A68BB69DB43134913404B603B685B6833
:100A000003F48033002B1FD00E4B1A680D49BB69CD
:100A100013430B601FE000BF0000321000003110D4
:100A20000000221000002110000012100000111020
:100A3000001002400000014000080140000C01408D
:100A400000100140000401400B4B1A68BB69DB43F6
:100A5000094913400B607B6A01337B623B681A686B
:100A60007B6A22FA03F3002B7FF496AE00BF00BF2F
:100A70002C37BD4680BC70470004014080B483B071
:100A800000AF78600B467B8013467B707B78002B31
:100A900003D07A887B681A6103E07B881A047B683C
:100AA0001A6100BF0C37BD4680BC704780B485B06A
:100AB00000AF78600B467B807B68DB68FB607A88E0
:100AC000FB6813401A04FB68D9437B880B401A4328
:100AD0007B681A6100BF1437BD4680BC70470000B8
:100AE00080B586B000AF78607B68002B01D1012310
:100AF00072E27B681B6803F00103002B00F0878023
:100B0000924B5B6803F00C03042B0CD08F4B5B689B
:100B100003F00C03082B12D18C4B5B6803F4803379
:100B2000B3F5803F0BD1894B1B6803F40033002BD6
:100B30006CD07B685B68002B68D101234CE27B683A
:100B40005B68B3F5803F06D1804B1B687F4A43F456
:100B5000803313602EE07B685B68002B0CD17B4BED
:100B60001B687A4A23F480331360784B1B68774AFA
:100B700023F4802313601DE07B685B68B3F5A02F2E
:100B80000CD1724B1B68714A43F4802313606F4B86
:100B90001B686E4A43F4803313600BE06B4B1B6899
:100BA0006A4A23F480331360684B1B68674A23F456
:100BB000802313607B685B68002B13D0FFF7F8FC81
:100BC000386108E0FFF7F4FC02463B69D31A642B56
:100BD00001D9032300E25D4B1B6803F40033002BB3
:100BE000F0D014E0FFF7E4FC386108E0FFF7E0FC28
:100BF00002463B69D31A642B01D90323ECE1534B22
:100C00001B6803F40033002BF0D100E000BF7B68C9
:100C10001B6803F00203002B63D04C4B5B6803F0AE
:100C20000C03002B0BD0494B5B6803F00C03082B23
:100C30001CD1464B5B6803F48033002B16D1434B29
:100C40001B6803F00203002B05D07B681B69012B96
:100C500001D00123C0E13D4B1B6823F0F8027B6803
:100C60005B69DB00394913430B603AE07B681B6921
:100C7000002B20D0364B01221A60FFF799FC386117
:100C800008E0FFF795FC02463B69D31A022B01D915
:100C90000323A1E12D4B1B6803F00203002BF0D0CE
:100CA0002A4B1B6823F0F8027B685B69DB0027494D
:100CB00013430B6015E0264B00221A60FFF778FC07
:100CC000386108E0FFF774FC02463B69D31A022B37
:100CD00001D9032380E11D4B1B6803F00203002BA5
:100CE000F0D17B681B6803F00803002B3AD07B68C7
:100CF0009B69002B19D0174B01221A60FFF758FC93
:100D0000386108E0FFF754FC02463B69D31A022B16
:100D100001D9032360E10D4B5B6A03F00203002B52
:100D2000F0D0012000F0EAFA1CE00A4B00221A6021
:100D3000FFF73EFC38610FE0FFF73AFC02463B69E3
:100D4000D31A022B08D9032346E100BF001002404A
:100D50000000424280044242924B5B6A03F002036D
:100D6000002BE9D17B681B6803F00403002B00F023
:100D7000A6800023FB758B4BDB6903F08053002BAF
:100D80000DD1884BDB69874A43F08053D361854B93
:100D9000DB6903F08053BB60BB680123FB75824BAA
:100DA0001B6803F48073002B18D17F4B1B687E4AAD
:100DB00043F480731360FFF7FBFB386108E0FFF733
:100DC000F7FB02463B69D31A642B01D9032303E1E5
:100DD000754B1B6803F48073002BF0D07B68DB68D5
:100DE000012B06D16F4B1B6A6E4A43F0010313625D
:100DF0002DE07B68DB68002B0CD16A4B1B6A694ACB
:100E000023F001031362674B1B6A664A23F0040355
:100E100013621CE07B68DB68052B0CD1614B1B6AFD
:100E2000604A43F0040313625E4B1B6A5D4A43F061
:100E3000010313620BE05B4B1B6A5A4A23F0010368
:100E40001362584B1B6A574A23F0040313627B68F2
:100E5000DB68002B15D0FFF7ABFB38610AE0FFF72A
:100E6000A7FB02463B69D31A41F28832934201D96B
:100E70000323B1E04B4B1B6A03F00203002BEED0BF
:100E800014E0FFF795FB38610AE0FFF791FB02469B
:100E90003B69D31A41F28832934201D903239BE084
:100EA000404B1B6A03F00203002BEED1FB7D012BAC
:100EB00005D13C4BDB693B4A23F08053D3617B680F
:100EC000DB69002B00F08780364B5B6803F00C0376
:100ED000082B61D07B68DB69022B46D1334B0022A3
:100EE0001A60FFF765FB386108E0FFF761FB024617
:100EF0003B69D31A022B01D903236DE0294B1B68F0
:100F000003F00073002BF0D17B681B6AB3F5803FC0
:100F100008D1244B5B6823F400327B689B6821492D
:100F200013434B601F4B5B6823F474127B68196A90
:100F30007B685B6A0B431B4913434B601B4B0122CD
:100F40001A60FFF735FB386108E0FFF731FB024616
:100F50003B69D31A022B01D903233DE0114B1B68D7
:100F600003F00073002BF0D035E0104B00221A6024
:100F7000FFF71EFB386108E0FFF71AFB02463B69EA
:100F8000D31A022B01D9032326E0064B1B6803F07A
:100F90000073002BF0D11EE07B68DB69012B07D1C9
:100FA000012319E00010024000700040600042423E
:100FB0000B4B5B68FB60FB6803F480327B681B6A49
:100FC0009A4206D1FB6803F470127B685B6A9A420E
:100FD00001D0012300E0002318461837BD4680BD2C
:100FE0000010024080B584B000AF786039607B6843
:100FF000002B01D10123D0E06A4B1B6803F00703EB
:101000003A689A4210D9674B1B6823F0070265497A
:101010003B6813430B60634B1B6803F007033A689C
:101020009A4201D00123B8E07B681B6803F00203F9
:10103000002B20D07B681B6803F00403002B05D035
:10104000594B5B68584A43F4E06353607B681B6804
:1010500003F00803002B05D0534B5B68524A43F45E
:1010600060535360504B5B6823F0F0027B689B68D1
:101070004D4913434B607B681B6803F00103002B51
:1010800040D07B685B68012B07D1474B1B6803F49A
:101090000033002B15D101237FE07B685B68022BB6
:1010A00007D1414B1B6803F00073002B09D10123CA
:1010B00073E03D4B1B6803F00203002B01D10123B9
:1010C0006BE0394B5B6823F003027B685B68364951
:1010D00013434B60FFF76CFAF8600AE0FFF768FA19
:1010E0000246FB68D31A41F28832934201D90323A6
:1010F00053E02D4B5B6803F00C027B685B689B0040
:101100009A42EBD1274B1B6803F007033A689A42D7
:1011100010D2244B1B6823F0070222493B6813437B
:101120000B60204B1B6803F007033A689A4201D01A
:10113000012332E07B681B6803F00403002B08D016
:10114000194B5B6823F4E0627B68DB681649134344
:101150004B607B681B6803F00803002B09D0124B1F
:101160005B6823F460527B681B69DB000E49134304
:101170004B6000F021F802460B4B5B681B0903F043
:101180000F030A49CB5C22FA03F3094A1360094BA7
:101190001B681846FFF716F9002318461037BD469E
:1011A00080BD00BF0020024000100240FC2D00085E
:1011B000000000200400002080B487B000AF0023AE
:1011C000FB600023BB6000237B6100237B60002366
:1011D0003B611E4B5B68FB60FB6803F00C03042B58
:1011E00002D0082B03D027E0194B3B6127E0FB68B6
:1011F0009B0C03F00F03174AD35C7B60FB6803F47E
:101200008033002B10D0114B5B685B0C03F00103A3
:10121000114AD35CBB607B680D4A03FB02F2BB68DA
:10122000B2FBF3F37B6104E07B680C4A02FB03F33F
:101230007B617B693B6102E0054B3B6100BF3B6921
:1012400018461C37BD4680BC704700BF00100240E6
:1012500000127A00142E0008242E000800093D0018
:1012600080B400AF024B1B681846BD4680BC704777
:101270000000002080B500AFFFF7F2FF0246054BEB
:101280005B681B0A03F007030349CB5C22FA03F3F4
:10129000184680BD001002400C2E000880B483B0B8
:1012A00000AF786039607B680F221A60114B5B6871
:1012B00003F003027B685A600E4B5B6803F0F00298
:1012C0007B689A600B4B5B6803F4E0627B68DA60D2
:1012D000084B5B68DB0803F4E0627B681A61064B2D
:1012E0001B6803F007023B681A6000BF0C37BD465D
:1012F00080BC7047001002400020024080B485B0DE
:1013000000AF78600A4B1B680A4AA2FB03235B0A02
:101310007A6802FB03F3FB6000BFFB685A1EFA60A9
:10132000002BF9D100BF00BF1437BD4680BC704709
:1013300000000020D34D621080B582B000AF78600D
:101340007B68002B01D1012341E07B6893F83D309D
:10135000DBB2002B06D17B68002283F83C20786842
:1013600000F039F87B68022283F83D207B681A6818
:101370007B6804331946104600F0AEF97B68012201
:1013800083F846207B68012283F83E207B68012297
:1013900083F83F207B68012283F840207B6801228C
:1013A00083F841207B68012283F842207B68012278
:1013B00083F843207B68012283F844207B68012264
:1013C00083F845207B68012283F83D2000231846DE
:1013D0000837BD4680BD80B483B000AF786000BFE1
:1013E0000C37BD4680BC704780B485B000AF7860D4
:1013F0007B6893F83D30DBB2012B01D0012335E04F
:101400007B68022283F83D207B681B68DA687B6872
:101410001B6842F00102DA607B681B68164A93423F
:1014200009D07B681B68B3F1804F04D07B681B68D0
:10143000124A934211D17B681B689B6803F0070333
:10144000FB60FB68062B10D07B681B681A687B6802
:101450001B6842F001021A6007E07B681B681A688B
:101460007B681B6842F001021A600023184614379B
:10147000BD4680BC704700BF002C01400004004006
:1014800080B582B000AF78607B681B681B6903F091
:101490000203022B22D17B681B68DB6803F0020386
:1014A000022B1BD17B681B686FF002021A617B68FC
:1014B00001221A777B681B689B6903F00303002BEA
:1014C00003D0786800F0EDF805E0786800F0E0F807
:1014D000786800F0EFF87B6800221A777B681B6859
:1014E0001B6903F00403042B22D17B681B68DB68B3
:1014F00003F00403042B1BD17B681B686FF004020C
:101500001A617B6802221A777B681B689B6903F467
:101510004073002B03D0786800F0C3F805E07868CA
:1015200000F0B6F8786800F0C5F87B6800221A77FA
:101530007B681B681B6903F00803082B22D17B68BA
:101540001B68DB6803F00803082B1BD17B681B6852
:101550006FF008021A617B6804221A777B681B68A7
:10156000DB6903F00303002B03D0786800F099F8DF
:1015700005E0786800F08CF8786800F09BF87B68EC
:1015800000221A777B681B681B6903F01003102B7D
:1015900022D17B681B68DB6803F01003102B1BD182
:1015A0007B681B686FF010021A617B6808221A774B
:1015B0007B681B68DB6903F44073002B03D07868F9
:1015C00000F06FF805E0786800F062F8786800F0E5
:1015D00071F87B6800221A777B681B681B6903F02F
:1015E0000103012B0ED17B681B68DB6803F001034C
:1015F000012B07D17B681B686FF001021A617868C4
:10160000FEF790FE7B681B681B6903F08003802B4C
:101610000ED17B681B68DB6803F08003802B07D149
:101620007B681B686FF080021A61786800F0B5F87B
:101630007B681B681B6903F04003402B0ED17B685D
:101640001B68DB6803F04003402B07D17B681B68F5
:101650006FF040021A61786800F035F87B681B680B
:101660001B6903F02003202B0ED17B681B68DB680D
:1016700003F02003202B07D17B681B686FF020024A
:101680001A61786800F080F800BF0837BD4680BD59
:1016900080B483B000AF786000BF0C37BD4680BC1B
:1016A000704780B483B000AF786000BF0C37BD4690
:1016B00080BC704780B483B000AF786000BF0C3747
:1016C000BD4680BC704780B483B000AF786000BF77
:1016D0000C37BD4680BC704780B485B000AF7860E1
:1016E00039607B681B68FB607B68254A934207D0A2
:1016F0007B68B3F1804F03D07B68224A934208D1C4
:10170000FB6823F07003FB603B685B68FA68134377
:10171000FB607B681A4A934207D07B68B3F1804F25
:1017200003D07B68174A934208D1FB6823F44073C7
:10173000FB603B68DB68FA681343FB60FB6823F0DF
:1017400080023B685B691343FB607B68FA681A6040
:101750003B689A687B68DA623B681A687B689A62C1
:101760007B68074A934203D13B681A697B681A6316
:101770007B6801225A6100BF1437BD4680BC7047A8
:10178000002C01400004004080B483B000AF7860BA
:1017900000BF0C37BD4680BC704780B483B000AF3B
:1017A000786000BF0C37BD4680BC704780B485B000
:1017B00000AF0346FB800023FB60B7F90630842BA3
:1017C00005D0B7F90620FB6813440333FB60FB68C0
:1017D00018461437BD4680BC704780B500AF00F096
:1017E000EFFA0023184680BDF0B589B004AF7860E9
:1017F00039607B685B69002B20D07B689B69002B7C
:101800001CD07B685C687B681D687B681E697B6890
:10181000B3F908301846FFF7C9FF01467B685B69DA
:101820007A6892690292019300913B683246294698
:10183000204600F0E8F80346FB601CE07B685C682B
:101840007B681D687B681B699EB27B68B3F90830B2
:101850001846FFF7ABFF024607F10C030193009215
:101860003B6832462946204600F02CF90346012BFE
:1018700001D0002300E0FB6818461437BD46F0BDD8
:1018800080B584B000AF78607B68FB60FB68002B9C
:1018900001D0FB6800E00123184600F05BFA00234A
:1018A00018461037BD4680BD80B483B000AF786065
:1018B0007B6803F108027B685A607B684FF0FF3257
:1018C0009A607B6803F108027B68DA607B6803F149
:1018D00008027B681A617B6800221A6000BF0C371F
:1018E000BD4680BC704780B483B000AF78607B6831
:1018F00000221A6100BF0C37BD4680BC704780B41F
:1019000085B000AF786039607B685B68FB603B68DE
:10191000FA685A60FB689A683B689A60FB689B6843
:101920003A685A60FB683A689A603B687A681A615C
:101930007B681B685A1C7B681A6000BF1437BD4661
:1019400080BC704780B485B000AF786039603B6878
:101950001B68BB60BB68B3F1FF3F03D17B681B69A9
:10196000FB600CE07B680833FB6002E0FB685B68AF
:10197000FB60FB685B681B68BA689A42F6D2FB683A
:101980005A683B685A603B685B683A689A603B6893
:10199000FA689A60FB683A685A603B687A681A612C
:1019A0007B681B685A1C7B681A6000BF1437BD46F1
:1019B00080BC704780B485B000AF78607B681B69DD
:1019C000FB607B685B687A6892689A607B689B685A
:1019D0007A6852685A60FB685B687A689A4203D1F9
:1019E0007B689A68FB685A607B6800221A61FB6812
:1019F0001B685A1EFB681A60FB681B681846143780
:101A0000BD4680BC704780B58EB004AFF860B96049
:101A10007A603B607B6B002B0BD14FF0500383F35C
:101A20001188BFF36F8FBFF34F8F3B6200BF00BFC2
:101A3000FDE7BB6B002B0BD14FF0500383F31188F4
:101A4000BFF36F8FBFF34F8FFB6100BF00BFFDE798
:101A5000A0233B613B69A02B0BD04FF0500383F3D5
:101A60001188BFF36F8FBFF34F8FBB6100BF00BF03
:101A7000FDE7BB6B002B1ED07B6B002B1BD0BB6B21
:101A80007B627B6A7A6B1A637B6A022283F89D20F1
:101A9000002303937B6A029307F1140301933B6BCA
:101AA00000933B687A68B968F86800F051F8786A82
:101AB00000F0E6F801E000237B617B6918462837D7
:101AC000BD4680BD80B58CB004AFF860B9603B60A6
:101AD0001346FB80FB889B00184600F0A1FE78614E
:101AE0007B69002B0ED0A02000F09AFEF861FB6904
:101AF000002B03D0FB697A691A6305E0786900F06E
:101B000057FF01E00023FB61FB69002B17D0FB6945
:101B1000002283F89D20FA8800230393FB69029337
:101B2000FB6A0193BB6A00933B68B968F86800F0F0
:101B30000FF8F86900F0A4F80123BB6102E04FF050
:101B4000FF33BB61BB6918462037BD4680BD00002E
:101B500080B588B000AFF860B9607A603B603B6BDD
:101B60001A6B7B6803F18043013B9B001344BB610C
:101B7000BB6923F00703BB61BB6903F00703002BBC
:101B80000BD04FF0500383F31188BFF36F8FBFF377
:101B90004F8F7B6100BF00BFFDE70023FB6112E0B8
:101BA000BA68FB69134419783A6BFB691344343300
:101BB0000A461A70BA68FB6913441B78002B06D0DA
:101BC000FB690133FB61FB690F2BE9D900E000BF22
:101BD0003B6B002283F84320BB6A062B01D9062306
:101BE000BB623B6BBA6ADA623B6BBA6A5A643B6BA4
:101BF00000229A643B6B04331846FFF774FE3B6B7C
:101C000018331846FFF76FFE3B6B3A6B1A61BB6ADD
:101C1000C3F107023B6B9A613B6B3A6B5A623B6BB9
:101C20000022C3F898203B6B002283F89C203B6B7A
:101C30004C334C220021184600F0D0FF3B6B0D4A7C
:101C40001A653B6B0C4A5A653B6B0C4A9A653A68BD
:101C5000F968B86900F030FC02463B6B1A60FB6A19
:101C6000002B02D0FB6A3A6B1A6000BF2037BD46DA
:101C700080BD00BFBC100020241100208C1100206A
:101C800080B582B000AF786000F008FD2A4B1B6879
:101C90000133294A1360294B1B68002B09D1274ABD
:101CA0007B681360244B1B68012B10D100F0D6FA1F
:101CB0000DE0234B1B68002B09D1204B1B68DA6A0F
:101CC0007B68DB6A9A4202D81C4A7B6813601D4B12
:101CD0001B6801331B4A13607B68DB6A01229A4050
:101CE000194B1B681343184A13607B68DA6A134662
:101CF0009B0013449B00154A1A447B680433194621
:101D00001046FFF7FCFD00F0F9FC0D4B1B68002BA3
:101D10000ED00A4B1B68DA6A7B68DB6A9A4207D2EC
:101D20000B4B4FF080521A60BFF34F8FBFF36F8F92
:101D300000BF0837BD4680BD70040020700300203E
:101D40007C0400208C040020780400207403002010
:101D500004ED00E080B584B000AF78600023FB6044
:101D60007B68002B18D0144B1B68002B0BD04FF056
:101D7000500383F31188BFF36F8FBFF34F8FBB60A6
:101D800000BF00BFFDE700F085F80021786800F093
:101D90002DFB00F08DF8F860FB68002B07D1074B96
:101DA0004FF080521A60BFF34F8FBFF36F8F00BFA9
:101DB0001037BD4680BD00BF9804002004ED00E050
:101DC00080B58AB004AF0023BB6000237B603A4635
:101DD000391D07F108031846FEF7BAF939687B6820
:101DE000BA68029201930023009300230A46214916
:101DF0002148FFF708FE0346204A13601F4B1B686B
:101E0000002B02D001237B6101E000237B617B6911
:101E1000012B1BD14FF0500383F31188BFF36F8F59
:101E2000BFF34F8F3B6100BF154B1B684C33154A06
:101E30001360154B4FF0FF321A60144B01221A60E9
:101E4000134B00221A6000F0B7FB0FE07B69B3F17F
:101E5000FF3F0BD14FF0500383F31188BFF36F8F17
:101E6000BFF34F8FFB6000BF00BFFDE700BF183717
:101E7000BD4680BDF42D00082D22000894040020EA
:101E80007003002010000020900400207C0400203B
:101E90007404002080B400AF044B1B680133034A74
:101EA000136000BFBD4680BC704700BF980400208F
:101EB00080B584B000AF0023FB600023BB60424BC1
:101EC0001B68002B0BD14FF0500383F31188BFF335
:101ED0006F8FBFF34F8F3B6000BF00BFFDE700F087
:101EE000DDFB394B1B68013B374A1360364B1B68DF
:101EF000002B61D1354B1B68002B5DD02EE0344B9D
:101F0000DB68DB68FB60FB6818331846FFF752FD9F
:101F1000FB6804331846FFF74DFDFB68DB6A0122BE
:101F20009A402C4B1B6813432A4A1360FB68DA6AF9
:101F300013469B0013449B00274A1A44FB68043352
:101F400019461046FFF7DBFCFB68DA6A234B1B6877
:101F5000DB6A9A4202D3224B01221A601C4B1B6897
:101F6000002BCCD1FB68002B01D000F01BFA1D4BDD
:101F70001B687B607B68002B10D000F037F80346AD
:101F8000002B02D0164B01221A607B68013B7B605C
:101F90007B68002BF1D1134B00221A60104B1B6899
:101FA000002B09D00123BB600F4B4FF080521A6009
:101FB000BFF34F8FBFF36F8F00F0A0FBBB681846D5
:101FC0001037BD4680BD00BF98040020700400207B
:101FD00030040020780400207403002070030020E7
:101FE000840400208004002004ED00E080B586B069
:101FF00000AF00237B61514B1B68002B40F08E80AB
:102000004F4B1B6801333B614D4A3B6913603B6991
:10201000002B21D14B4B1B681B68002B0BD04FF0C2
:10202000500383F31188BFF36F8FBFF34F8F3B6073
:1020300000BF00BFFDE7434B1B68FB60424B1B68C2
:10204000404A1360404AFB681360404B1B680133F1
:102050003E4A136000F0A6F93D4B1B683A699A426C
:102060004DD3384B1B681B68002B01D1012300E0C6
:102070000023002B04D0364B4FF0FF321A603EE0B5
:10208000304B1B68DB68DB68BB60BB685B687B60F0
:102090003A697B689A4203D22D4A7B6813602EE02E
:1020A000BB6804331846FFF785FCBB689B6A002BAE
:1020B00004D0BB6818331846FFF77CFCBB68DB6AAA
:1020C00001229A40234B1B681343224A1360BB68CA
:1020D000DA6A13469B0013449B001F4A1A44BB68EC
:1020E000043319461046FFF70AFCBB68DA6A1B4B3B
:1020F0001B68DB6A9A42B4D301237B61B1E7174BBB
:102100001B68DA6A144913469B0013449B000B4476
:102110001B68012B07D901237B6104E0104B1B686E
:1021200001330F4A13600F4B1B68002B01D00123B2
:102130007B617B6918461837BD4680BD9804002036
:1021400074040020280400202C04002088040020AF
:102150009004002078040020740300207003002005
:10216000800400208404002080B487B000AF294B95
:102170001B68002B03D0284B01221A6045E0264B38
:1021800000221A60254B1B68FB60FB68B3FA83F3DF
:10219000FB72FB7AC3F11F037B6121497A69134605
:1021A0009B0013449B000B441B68002B0BD14FF08A
:1021B000500383F31188BFF36F8FBFF34F8F7B60A2
:1021C00000BF00BFFDE77A6913469B0013449B00E4
:1021D000134A13443B613B695B685A683B695A6028
:1021E0003B695A683B6908339A4204D13B695B6892
:1021F0005A683B695A603B695B68DB68094A13604F
:10220000084B1B684C33084A136000BF1C37BD469F
:1022100080BC7047980400208404002078040020CB
:1022200074030020700300201000002080B582B0ED
:1022300000AF786000F052F8064B1B68012BF9D90B
:10224000054B4FF080521A60BFF34F8FBFF36F8F73
:10225000F0E700BF7403002004ED00E080B582B019
:1022600000AF00237B600CE07A6813469B001344A8
:102270009B00124A13441846FFF716FB7B68013394
:102280007B607B68062BEFD90D48FFF70DFB0D48EF
:10229000FFF70AFB0C48FFF707FB0C48FFF704FBAE
:1022A0000B48FFF701FB0B4B054A1A600A4B054A26
:1022B0001A6000BF0837BD4680BD00BF7403002010
:1022C00000040020140400203004002044040020F6
:1022D0005C040020280400202C04002080B582B07B
:1022E00000AF19E000F0DAF9104BDB68DB687B60C7
:1022F0007B6804331846FFF75DFB0D4B1B68013B01
:102300000B4A13600B4B1B68013B0A4A136000F039
:10231000F5F9786800F010F8064B1B68002BE1D146
:1023200000BF00BF0837BD4680BD00BF4404002089
:10233000700400205804002080B584B000AF78609D
:102340007B684C33184600F051FC7B6893F89D3055
:10235000002B08D17B681B6B184600F029FB7868BE
:1023600000F026FB19E07B6893F89D30012B03D128
:10237000786800F01DFB10E07B6893F89D30022B1D
:102380000BD04FF0500383F31188BFF36F8FBFF36F
:102390004F8FFB6000BF00BFFDE700BF1037BD4699
:1023A00080BD000080B483B000AF0E4B1B681B687B
:1023B000002B01D1012300E00023002B04D00A4BA5
:1023C0004FF0FF321A6008E0064B1B68DB68DB68E1
:1023D0007B607B685B68044A136000BF0C37BD46B6
:1023E00080BC7047280400209004002080B584B091
:1023F00000AF78603960294B1B68FB60284B1B6875
:1024000004331846FFF7D6FA0346002B0BD1244BB2
:102410001B68DB6A012202FA03F3DA43214B1B68D3
:102420001340204A13607B68B3F1FF3F0AD13B6839
:10243000002B07D01A4B1B68043319461A48FFF7C4
:102440005EFA26E0FA687B681344BB60144B1B6895
:10245000BA685A60BA68FB689A4209D2134B1A6884
:102460000F4B1B68043319461046FFF76BFA10E058
:102470000F4B1A680A4B1B68043319461046FFF7C6
:1024800061FA0C4B1B68BA689A4202D2094ABB68CF
:10249000136000BF1037BD4680BD00BF740400202C
:1024A00070030020780400205C0400202C0400202D
:1024B000280400209004002080B485B000AFF860AC
:1024C000B9607A60FB68043BFB60FB684FF0807288
:1024D0001A60FB68043BFB60BB6823F00102FB68E9
:1024E0001A60FB68043BFB60084AFB681A60FB68E3
:1024F000143BFB607A68FB681A60FB68203BFB605A
:10250000FB6818461437BD4680BC7047112500088B
:1025100080B485B000AF00237B60124B1B68B3F121
:10252000FF3F0BD04FF0500383F31188BFF36F8F41
:10253000BFF34F8FFB6000BF00BFFDE74FF05003BC
:1025400083F31188BFF36F8FBFF34F8FBB6000BF62
:1025500000BF7B68002BFCD000BF00BF1437BD4616
:1025600080BC70470C00002000000000000000004C
:10257000074B19680868B0E8F00F80F30988BFF3CB
:102580006F8F4FF0000080F311884EF00D0E7047F2
:102590007003002000BF00BF06480068006880F399
:1025A000088862B661B6BFF34F8FBFF36F8F00DF4D
:1025B00000BF00BF08ED00E080B584B000AF324B33
:1025C000FB60FB681B78DBB27B60FB68FF221A7044
:1025D000FB681B78DBB2FB70FB78DBB203F05003C7
:1025E000DAB22A4B1A702A4B07221A6009E0284BEC
:1025F0001B68013B264A1360FB78DBB25B00DBB251
:10260000FB70FB78DBB203F08003802BEFD0204B14
:102610001B68C3F10703042B0BD04FF0500383F367
:102620001188BFF36F8FBFF34F8FBB6000BF00BF38
:10263000FDE7174B1B681B02154A1360144B1B6800
:1026400003F4E063124A13607B68DAB2FB681A7025
:10265000104B1B680F4A43F4700313600D4B1B684B
:102660000C4A43F07043136000F0B8F80A4B0022A4
:102670001A60FFF791FFFFF777FDFFF749FF00238F
:1026800018461037BD4680BD00E400E09C040020E1
:10269000A004002020ED00E00C00002080B483B0F6
:1026A00000AF4FF0500383F31188BFF36F8FBFF378
:1026B0004F8F7B6000BF0F4B1B6801330D4A1360C7
:1026C0000C4B1B68012B10D10B4B1B68DBB2002B92
:1026D0000BD04FF0500383F31188BFF36F8FBFF31C
:1026E0004F8F3B6000BF00BFFDE700BF0C37BD460A
:1026F00080BC70470C00002004ED00E080B483B083
:1027000000AF124B1B68002B0BD14FF0500383F32B
:102710001188BFF36F8FBFF34F8F7B6000BF00BF87
:10272000FDE70A4B1B68013B084A1360074B1B6817
:10273000002B05D100233B603B6883F3118800BF69
:1027400000BF0C37BD4680BC704700BF0C000020A6
:10275000EFF30980BFF36F8F0D4B1A6820E9F00F7C
:1027600010602DE908404FF0500080F31188FFF70A
:10277000FBFC4FF0000080F31188BDE808401968A9
:102780000868B0E8F00F80F30988BFF36F8F7047D7
:102790007003002000BF00BF80B582B000AF4FF0D3
:1027A000500383F31188BFF36F8FBFF34F8F7B60AC
:1027B00000BFFFF71BFC0346002B03D0064B4FF076
:1027C00080521A6000233B603B6883F3118800BF8E
:1027D00000BF0837BD4680BD04ED00E080B400AF07
:1027E0000A4B00221A600A4B00221A60094B1B6830
:1027F000094AA2FB03239B09084A013B1360034BD0
:1028000007221A6000BFBD4680BC704710E000E0A0
:1028100018E000E000000020D34D621014E000E05A
:1028200080B58AB000AF78600023FB61FFF732FB10
:102830005A4B1B68002B01D100F016F9584B1A684F
:102840007B681340002B40F090807B68002B1ED0EB
:1028500008227B6813447B607B6803F00703002B2E
:1028600015D07B6823F0070308337B607B6803F097
:102870000703002B0BD04FF0500383F31188BFF3F5
:102880006F8FBFF34F8F7B6100BF00BFFDE77B6899
:10289000002B6AD0434B1B687A689A4265D8424B3A
:1028A0003B62414B1B687B6204E07B6A3B627B6A54
:1028B0001B687B627B6A5B687A689A4203D97B6A91
:1028C0001B68002BF1D1354B1B687A6A9A424CD0B9
:1028D0003B6A1B6808221344FB617B6A1A683B6AE7
:1028E0001A607B6A5A687B68D21A08235B009A4296
:1028F00020D97A6A7B681344BB61BB6903F0070384
:10290000002B0BD04FF0500383F31188BFF36F8F70
:10291000BFF34F8F3B6100BF00BFFDE77B6A5A6882
:102920007B68D21ABB695A607B6A7A685A60B86958
:1029300000F0FCF81B4B1A687B6A5B68D31A194AD3
:102940001360184B1A68194B1B689A4203D2154B37
:102950001B68164A13607B6A5A68114B1B681A433E
:102960007B6A5A607B6A00221A60FFF7A1FAFB6952
:1029700003F00703002B0BD04FF0500383F31188B3
:10298000BFF36F8FBFF34F8FFB6000BF00BFFDE74A
:10299000FB6918462837BD4680BD00BFAC1000203B
:1029A000B8100020B0100020A4100020B4100020A7
:1029B00080B586B000AF78607B687B617B68002B58
:1029C0004AD008235B427A6913447B617B693B618F
:1029D0003B695A68224B1B681340002B0BD14FF008
:1029E000500383F31188BFF36F8FBFF34F8FFB60EA
:1029F00000BF00BFFDE73B691B68002B0BD04FF009
:102A0000500383F31188BFF36F8FBFF34F8FBB6009
:102A100000BF00BFFDE73B695A68114B1B681340BC
:102A2000002B19D03B691B68002B15D13B695A68F4
:102A30000B4B1B68DB431A403B695A60FFF72AFACD
:102A40003B695A68074B1B681344064A1360386990
:102A500000F06CF8FFF72CFA00BF1837BD4680BDB8
:102A6000B8100020B010002080B485B000AF4FF443
:102A70004063BB60274BFB60FB6803F00703002B40
:102A80000CD0FB680733FB60FB6823F00703FB6097
:102A9000BA68FB68D31A1F4A1344BB60FB687B60AB
:102AA0001D4A7B6813601C4B00225A607B68BA6821
:102AB0001344FB600822FB689B1AFB60FB6823F051
:102AC0000703FB60FB68154A1360144B1B68002268
:102AD0005A60124B1B6800221A607B683B603B689F
:102AE000FA68D21A3B685A600C4B1A683B681A6045
:102AF0003B685B680A4A13603B685B68094A13607D
:102B0000094B4FF000421A6000BF1437BD4680BC2D
:102B1000704700BFA4040020A4100020AC100020C7
:102B2000B4100020B0100020B810002080B485B090
:102B300000AF7860274BFB6002E0FB681B68FB601E
:102B4000FB681B687A689A42F7D8FB68BB60FB6831
:102B50005B68BA6813447A689A4208D1FB685A687D
:102B60007B685B681A44FB685A60FB687B607B6823
:102B7000BB607B685B68BA681A44FB681B689A4252
:102B800018D1FB681A68144B1B689A420DD07B68F9
:102B90005A68FB681B685B681A447B685A60FB686C
:102BA0001B681A687B681A6008E00B4B1A687B6820
:102BB0001A6003E0FB681A687B681A60FA687B6831
:102BC0009A4202D0FB687A681A6000BF1437BD468B
:102BD00080BC7047A4100020AC10002003460244C3
:102BE000934200D1704703F8011BF9E7294B70B5F8
:102BF0001B68044683424BD0C369ABB1DB686BB141
:102C00000025E369DB68595900293BD10435802D43
:102C1000F7D1E3692046D96800F064F8E3691968E0
:102C200011B1204600F05EF8616911B1204600F054
:102C300059F8E16911B1204600F054F8216B11B147
:102C4000204600F04FF8616B11B1204600F04AF8C1
:102C5000A16B11B1204600F045F8A16C11B12046DE
:102C600000F040F8616C11B1204600F03BF8E16AD9
:102C700011B1204600F036F8236A4BB12046BDE87A
:102C8000704018470E68204600F02CF83146BBE72C
:102C900070BD00BF1000002070B500260C4D0D4C1B
:102CA000641BA410A64209D100F070F800260A4D5A
:102CB0000A4C641BA410A64205D170BD55F8043B14
:102CC00098470136EEE755F8043B98470136F2E79E
:102CD000282E0008282E0008282E00082C2E000878
:102CE0007047704738B50546002940D051F8043C7C
:102CF0000C1F002BB8BFE41800F03CF81C4A136806
:102D000033B9636014602846BDE8384000F038B835
:102D1000A34208D9206821188B4201BF19685B685B
:102D200009182160EDE71A465B680BB1A342FAD996
:102D300011685018A0420BD12068014450188342FA
:102D40001160E0D118685B68084410605360DAE7EE
:102D500002D90C232B60D6E7206821188B4201BFD3
:102D600019685B680918216063605460CBE738BD5F
:102D7000F81100200148FFF7B3BF00BFF411002095
:102D80000148FFF7AEBF00BFF4110020F8B500BF47
:102D9000F8BC08BC9E467047F8B500BFF8BC08BC3C
:042DA0009E46704794
:102DA40064656661756C745461736B00A42D0008CE
:102DB400F502000800000000000000008000000090
:102DC40000000000000000004C65645F426C696E06
:102DD4006B000000CC2D0008050300080000000073
:102DE400000000008000000000000000000000005F
:102DF40049444C45000000000000000000000000B1
:102E0400010203040607080900000000010203048C
:102E140002030405060708090A0B0C0D0E0F101017
:042E240001020000A7
:042E28003501000868
:042E2C001101000888
:102E30000024F4001000000001000000AAAAAAAAC1
:102E40001400002000000000BC100020241100200D
:102E50008C110020000000000000000000000000B5
:102E60000000000000000000000000000000000062
:102E70000000000000000000000000000000000052
:102E80000000000000000000000000000000000042
:0400000508000515D5
:00000001FF
