:020000040800F2
:1000000000280020C9050008750500087D050008C6
:10001000850500088D050008950500080000000012
:10002000000000000000000000000000813800080F
:100030009D05000800000000613A0008A93A000888
:100040001106000811060008110600081106000834
:100050001106000811060008110600081106000824
:100060001106000811060008110600081106000814
:100070001106000811060008110600081106000804
:1000800011060008110600081106000811060008F4
:1000900011060008110600081106000811060008E4
:1000A00011060008110600081106000811060008D4
:1000B00011060008A905000800000000110600084C
:1000C00011060008000000000000000011060008F2
:1000D00000000000110600081106000800000000E2
:1000E00011060008110600081106000800000000B3
:1000F0000000000000000000000000000000000000
:0C01000000000000000000005FF808F1A3
:1001100010B5054C237833B9044B13B10448AFF341
:1001200000800123237010BD60000020000000004B
:100130003841000808B5034B1BB103490348AFF32E
:10014000008008BD00000000640000203841000865
:1001500080B485B000AFF860B9607A60FB68064A89
:100160001A60BB68054A1A607B6880221A6000BF6B
:100170001437BD4680BC70477C0000201C01002065
:10018000B0B598B000AF00F045FA00F059F800F0B3
:1001900099F80023BB650023FB6507F15803012193
:1001A000184601F0D2FB03461E4A13601E4B07F1AE
:1001B0003C041D460FCD0FC495E8070084E80700F6
:1001C00007F13C030021184601F05FFB0346174A84
:1001D0001360174B07F120041D460FCD0FC495E89F
:1001E000070084E8070007F120030021184601F00A
:1001F0004CFB03460F4A13600F4B3C1D1D460FCDB1
:100200000FC495E8070084E807003B1D002118464D
:1002100001F03BFB0346094A136001F02FFB00BFCE
:10022000FDE700BF280300205C4100081C030020FC
:100230008041000820030020A4410008240300207E
:1002400080B590B000AF07F11803282200211846AE
:1002500003F08CFE3B1D00221A605A609A60DA603F
:100260001A610223BB610123BB621023FB620223DC
:100270007B630023BB634FF46013FB6307F1180338
:10028000184600F06DFC0346002B01D000F0B6F8D4
:100290000F237B600223BB600023FB604FF480636D
:1002A0003B6100237B613B1D0221184600F0DAFE12
:1002B0000346002B01D000F0A1F800BF4037BD4637
:1002C00080BD000080B586B000AF07F108030022B2
:1002D0001A605A609A60DA601D4B9B691C4A43F0B1
:1002E000040393611A4B9B6903F004037B607B68F2
:1002F000174B9B69164A43F008039361144B9B69A3
:1003000003F008033B603B6800220421114800F021
:100310000FFC0123BB600023FB6000233B6107F15E
:10032000080319460C4800F087FA0423BB60012338
:10033000FB6000233B6102237B6107F10803194640
:10034000044800F079FA00BF1837BD4680BD00BFF1
:1003500000100240000C01400008014080B582B04E
:1003600000AF78604FF47A7001F0DBFAFAE7000032
:1003700080B582B000AF7860094B1B684FF0FF3149
:10038000184601F015FB0346002BF5D1002204218D
:10039000044800F0CDFB4FF4FA7001F0C2FAEBE72D
:1003A00028030020000C014080B582B000AF7860C7
:1003B00001220421064800F0BBFB064B1B681846CF
:1003C00001F044FB4FF4FA7001F0ABFA00BFEFE725
:1003D000000C01402803002080B582B000AF786097
:1003E0007B681B68044A934201D100F029F900BFE1
:1003F0000837BD4680BD00BF0004004080B400AF98
:1004000072B600BF00BFFDE780B584B000AF184BE7
:100410009B69174A43F001039361154B9B6903F0F5
:100420000103BB60BB68124BDB69114A43F0805388
:10043000D3610F4BDB6903F080537B607B68002244
:100440000F216FF0010000F0CCF90A4B5B68FB60F4
:10045000FB6823F0E063FB60FB6843F00073FB6024
:10046000044AFB68536000BF1037BD4680BD00BF23
:10047000001002400000014080B58EB000AF7860EF
:100480000023FB620023BB62002387F83330344B28
:10049000DB69334A43F00203D361314BDB6903F07C
:1004A0000203FB60FB6807F1100207F11403114619
:1004B000184600F033FF3B6AFB62FB6A002B03D156
:1004C00000F018FF786304E000F014FF03465B00BF
:1004D0007B637B6B234AA2FB03239B0C013BBB6228
:1004E000214B224A1A60204B40F2E732DA601E4A62
:1004F000BB6A53601C4B00221A611B4B00229A609E
:10050000194B00229A61184800F056FF034687F8FD
:10051000333097F83330002B1BD1134800F0A4FF81
:10052000034687F8333097F83330002B11D11D2064
:1005300000F073F97B680F2B08D8002279681D2022
:1005400000F04FF90A4A7B68136002E0012387F844
:10055000333097F8333018463837BD4680BD00BF7A
:100560000010024083DE1B432C03002000040040E7
:100570000400002080B400AF00BFFDE780B400AFEE
:1005800000BFFDE780B400AF00BFFDE780B400AF5F
:1005900000BFFDE780B400AF00BFFDE780B400AF4F
:1005A00000BFBD4680BC704780B500AF024800F078
:1005B000A7FF00BF80BD00BF2C03002080B400AFA8
:1005C00000BFBD4680BC7047FFF7F8FF0B480C49E1
:1005D0000C4A002302E0D458C4500433C4188C429F
:1005E000F9D3094A094C002301E013600432A24206
:1005F000FBD303F019FDFFF7C3FD70470000002097
:1006000060000020FC41000860000020041200206F
:10061000FEE7000080B500AF084B1B68074A43F0B7
:1006200010031360032000F0D1F80F20FFF724FF20
:10063000FFF7EAFE0023184680BD00BF00200240FD
:1006400080B400AF054B1B781A46054B1B6813445A
:10065000034A136000BFBD4680BC704708000020FD
:100660007403002080B400AF024B1B681846BD46DF
:1006700080BC70477403002080B485B000AF786000
:100680007B6803F00703FB600C4BDB68BB60BA6858
:100690004FF6FF031340BB60FB681A02BB681343AD
:1006A00043F0BF6343F40033BB60044ABB68D360CC
:1006B00000BF1437BD4680BC704700BF00ED00E0AE
:1006C00080B400AF044BDB681B0A03F00703184635
:1006D000BD4680BC704700BF00ED00E080B483B031
:1006E00000AF0346FB7197F90730002B0BDBFB795A
:1006F00003F01F02064997F907305B09012000FA51
:1007000002F241F8232000BF0C37BD4680BC704781
:1007100000E100E080B483B000AF03463960FB71B4
:1007200097F90730002B0ADB3B68DAB20C4997F9DE
:1007300007301201D2B20B4483F800230AE03B6871
:10074000DAB20849FB7903F00F03043B1201D2B27D
:100750000B441A7600BF0C37BD4680BC704700BF03
:1007600000E100E000ED00E080B489B000AFF86087
:10077000B9607A60FB6803F00703FB61FB69C3F1B2
:100780000703042B28BF0423BB61FB690433062B3A
:1007900002D9FB69033B00E000237B614FF0FF328D
:1007A000BB6902FA03F3DA43BB681A407B699A40DB
:1007B0004FF0FF317B6901FA03F3D9437B680B40AB
:1007C000134318462437BD4680BC704780B582B0BD
:1007D00000AF78607868FFF74FFF00BF0837BD466D
:1007E00080BD80B586B000AF0346B9607A60FB7308
:1007F00000237B61FFF764FF78617A68B9687869E4
:10080000FFF7B2FF024697F90F3011461846FFF77F
:1008100081FF00BF1837BD4680BD80B582B000AFF4
:100820000346FB7197F907301846FFF757FF00BFE3
:100830000837BD4680BD000080B48BB000AF786043
:10084000396000237B6200233B6261E101227B6A05
:1008500002FA03F3FB613B681B68FA691340BB6152
:10086000BA69FB699A4240F050813B685B68974ADD
:1008700093425ED0954A934275D8954A934258D098
:10088000934A93426FD8934A934252D0914A9342EB
:1008900069D8914A93424CD08F4A934263D88F4A89
:1008A000934246D08D4A93425DD8122B2AD8122B00
:1008B00059D801A252F823F0330900080D090008A5
:1008C0001F09000861090008670900086709000896
:1008D0006709000867090008670900086709000838
:1008E0006709000867090008670900086709000828
:1008F000670900086709000867090008150900086A
:1009000029090008764A934213D02CE03B68DB6843
:100910003B6229E03B68DB6804333B6224E03B68D0
:10092000DB6808333B621FE03B68DB680C333B62EB
:100930001AE03B689B68002B02D104233B6213E062
:100940003B689B68012B05D108233B627B68FA69F1
:100950001A6109E008233B627B68FA695A6103E087
:1009600000233B6200E000BFBB69FF2B01D87B681E
:1009700001E07B6804337B61BB69FF2B02D87B6A93
:100980009B0002E07B6A083B9B003B617B691A6825
:100990000F213B6901FA03F3DB431A40396A3B69D3
:1009A00001FA03F31A437B691A603B685B6803F042
:1009B0008053002B00F0A9804A4B9B69494A43F0C1
:1009C00001039361474B9B6903F00103BB60BB6864
:1009D000454A7B6A9B08023352F82330FB607B6AEE
:1009E00003F003039B000F2202FA03F3DB43FA68D0
:1009F0001340FB607B683D4A93420DD07B683C4AC4
:100A0000934207D07B683B4A934201D1022304E022
:100A1000032302E0012300E000237A6A02F00302CC
:100A200092009340FA681343FB602F497B6A9B084E
:100A30000233FA6841F823203B685B6803F48013B3
:100A4000002B06D02C4B9A682B49BB6913438B6053
:100A500006E0294B9A68BB69DB43274913408B604A
:100A60003B685B6803F40013002B06D0224BDA6866
:100A70002149BB691343CB6006E01F4BDA68BB69B1
:100A8000DB431D491340CB603B685B6803F40033D4
:100A9000002B06D0184B5A681749BB6913434B60AB
:100AA00006E0154B5A68BB69DB43134913404B60A2
:100AB0003B685B6803F48033002B1FD00E4B1A6831
:100AC0000D49BB6913430B601FE000BF00003210EB
:100AD0000000311000002210000021100000121050
:100AE0000000111000100240000001400008014009
:100AF000000C014000100140000401400B4B1A683B
:100B0000BB69DB43094913400B607B6A01337B629D
:100B10003B681A687B6A22FA03F3002B7FF496AED7
:100B200000BF00BF2C37BD4680BC704700040140A9
:100B300080B483B000AF78600B467B8013467B7037
:100B40007B78002B03D07A887B681A6103E07B886E
:100B50001A047B681A6100BF0C37BD4680BC704721
:100B600080B586B000AF78607B68002B01D101238F
:100B700072E27B681B6803F00103002B00F08780A2
:100B8000924B5B6803F00C03042B0CD08F4B5B681B
:100B900003F00C03082B12D18C4B5B6803F48033F9
:100BA000B3F5803F0BD1894B1B6803F40033002B56
:100BB0006CD07B685B68002B68D101234CE27B68BA
:100BC0005B68B3F5803F06D1804B1B687F4A43F4D6
:100BD000803313602EE07B685B68002B0CD17B4B6D
:100BE0001B687A4A23F480331360784B1B68774A7A
:100BF00023F4802313601DE07B685B68B3F5A02FAE
:100C00000CD1724B1B68714A43F4802313606F4B05
:100C10001B686E4A43F4803313600BE06B4B1B6818
:100C20006A4A23F480331360684B1B68674A23F4D5
:100C3000802313607B685B68002B13D0FFF712FDE5
:100C4000386108E0FFF70EFD02463B69D31A642BBA
:100C500001D9032300E25D4B1B6803F40033002B32
:100C6000F0D014E0FFF7FEFC386108E0FFF7FAFC73
:100C700002463B69D31A642B01D90323ECE1534BA1
:100C80001B6803F40033002BF0D100E000BF7B6849
:100C90001B6803F00203002B63D04C4B5B6803F02E
:100CA0000C03002B0BD0494B5B6803F00C03082BA3
:100CB0001CD1464B5B6803F48033002B16D1434BA9
:100CC0001B6803F00203002B05D07B681B69012B16
:100CD00001D00123C0E13D4B1B6823F0F8027B6883
:100CE0005B69DB00394913430B603AE07B681B69A1
:100CF000002B20D0364B01221A60FFF7B3FC38617D
:100D000008E0FFF7AFFC02463B69D31A022B01D97A
:100D10000323A1E12D4B1B6803F00203002BF0D04D
:100D20002A4B1B6823F0F8027B685B69DB002749CC
:100D300013430B6015E0264B00221A60FFF792FC6C
:100D4000386108E0FFF78EFC02463B69D31A022B9C
:100D500001D9032380E11D4B1B6803F00203002B24
:100D6000F0D17B681B6803F00803002B3AD07B6846
:100D70009B69002B19D0174B01221A60FFF772FCF8
:100D8000386108E0FFF76EFC02463B69D31A022B7C
:100D900001D9032360E10D4B5B6A03F00203002BD2
:100DA000F0D0012000F0EAFA1CE00A4B00221A60A1
:100DB000FFF758FC38610FE0FFF754FC02463B692F
:100DC000D31A022B08D9032346E100BF00100240CA
:100DD0000000424280044242924B5B6A03F00203ED
:100DE000002BE9D17B681B6803F00403002B00F0A3
:100DF000A6800023FB758B4BDB6903F08053002B2F
:100E00000DD1884BDB69874A43F08053D361854B12
:100E1000DB6903F08053BB60BB680123FB75824B29
:100E20001B6803F48073002B18D17F4B1B687E4A2C
:100E300043F480731360FFF715FC386108E0FFF797
:100E400011FC02463B69D31A642B01D9032303E149
:100E5000754B1B6803F48073002BF0D07B68DB6854
:100E6000012B06D16F4B1B6A6E4A43F001031362DC
:100E70002DE07B68DB68002B0CD16A4B1B6A694A4A
:100E800023F001031362674B1B6A664A23F00403D5
:100E900013621CE07B68DB68052B0CD1614B1B6A7D
:100EA000604A43F0040313625E4B1B6A5D4A43F0E1
:100EB000010313620BE05B4B1B6A5A4A23F00103E8
:100EC0001362584B1B6A574A23F0040313627B6872
:100ED000DB68002B15D0FFF7C5FB38610AE0FFF790
:100EE000C1FB02463B69D31A41F28832934201D9D1
:100EF0000323B1E04B4B1B6A03F00203002BEED03F
:100F000014E0FFF7AFFB38610AE0FFF7ABFB0246E6
:100F10003B69D31A41F28832934201D903239BE003
:100F2000404B1B6A03F00203002BEED1FB7D012B2B
:100F300005D13C4BDB693B4A23F08053D3617B688E
:100F4000DB69002B00F08780364B5B6803F00C03F5
:100F5000082B61D07B68DB69022B46D1334B002222
:100F60001A60FFF77FFB386108E0FFF77BFB024662
:100F70003B69D31A022B01D903236DE0294B1B686F
:100F800003F00073002BF0D17B681B6AB3F5803F40
:100F900008D1244B5B6823F400327B689B682149AD
:100FA00013434B601F4B5B6823F474127B68196A10
:100FB0007B685B6A0B431B4913434B601B4B01224D
:100FC0001A60FFF74FFB386108E0FFF74BFB024662
:100FD0003B69D31A022B01D903233DE0114B1B6857
:100FE00003F00073002BF0D035E0104B00221A60A4
:100FF000FFF738FB386108E0FFF734FB02463B6936
:10100000D31A022B01D9032326E0064B1B6803F0F9
:101010000073002BF0D11EE07B68DB69012B07D148
:10102000012319E0001002400070004060004242BD
:101030000B4B5B68FB60FB6803F480327B681B6AC8
:101040009A4206D1FB6803F470127B685B6A9A428D
:1010500001D0012300E0002318461837BD4680BDAB
:101060000010024080B584B000AF786039607B68C2
:10107000002B01D10123D0E06A4B1B6803F007036A
:101080003A689A4210D9674B1B6823F007026549FA
:101090003B6813430B60634B1B6803F007033A681C
:1010A0009A4201D00123B8E07B681B6803F0020379
:1010B000002B20D07B681B6803F00403002B05D0B5
:1010C000594B5B68584A43F4E06353607B681B6884
:1010D00003F00803002B05D0534B5B68524A43F4DE
:1010E00060535360504B5B6823F0F0027B689B6851
:1010F0004D4913434B607B681B6803F00103002BD1
:1011000040D07B685B68012B07D1474B1B6803F419
:101110000033002B15D101237FE07B685B68022B35
:1011200007D1414B1B6803F00073002B09D1012349
:1011300073E03D4B1B6803F00203002B01D1012338
:101140006BE0394B5B6823F003027B685B683649D0
:1011500013434B60FFF786FAF8600AE0FFF782FA64
:101160000246FB68D31A41F28832934201D9032325
:1011700053E02D4B5B6803F00C027B685B689B00BF
:101180009A42EBD1274B1B6803F007033A689A4257
:1011900010D2244B1B6823F0070222493B681343FB
:1011A0000B60204B1B6803F007033A689A4201D09A
:1011B000012332E07B681B6803F00403002B08D096
:1011C000194B5B6823F4E0627B68DB6816491343C4
:1011D0004B607B681B6803F00803002B09D0124B9F
:1011E0005B6823F460527B681B69DB000E49134384
:1011F0004B6000F021F802460B4B5B681B0903F0C3
:101200000F030A49CB5C22FA03F3094A1360094B26
:101210001B681846FFF730F9002318461037BD4603
:1012200080BD00BF0020024000100240C8410008FD
:10123000000000200400002080B487B000AF00232D
:10124000FB600023BB6000237B6100237B600023E5
:101250003B611E4B5B68FB60FB6803F00C03042BD7
:1012600002D0082B03D027E0194B3B6127E0FB6835
:101270009B0C03F00F03174AD35C7B60FB6803F4FD
:101280008033002B10D0114B5B685B0C03F0010323
:10129000114AD35CBB607B680D4A03FB02F2BB685A
:1012A000B2FBF3F37B6104E07B680C4A02FB03F3BF
:1012B0007B617B693B6102E0054B3B6100BF3B69A1
:1012C00018461C37BD4680BC704700BF0010024066
:1012D00000127A00E0410008F041000800093D00DA
:1012E00080B400AF024B1B681846BD4680BC7047F7
:1012F0000000002080B500AFFFF7F2FF0246054B6B
:101300005B681B0A03F007030349CB5C22FA03F373
:10131000184680BD00100240D841000880B483B058
:1013200000AF786039607B680F221A60114B5B68F0
:1013300003F003027B685A600E4B5B6803F0F00217
:101340007B689A600B4B5B6803F4E0627B68DA6051
:10135000084B5B68DB0803F4E0627B681A61064BAC
:101360001B6803F007023B681A6000BF0C37BD46DC
:1013700080BC7047001002400020024080B485B05D
:1013800000AF78600A4B1B680A4AA2FB03235B0A82
:101390007A6802FB03F3FB6000BFFB685A1EFA6029
:1013A000002BF9D100BF00BF1437BD4680BC704789
:1013B00000000020D34D621080B582B000AF78608D
:1013C0007B68002B01D1012341E07B6893F83D301D
:1013D000DBB2002B06D17B68002283F83C207868C2
:1013E00000F039F87B68022283F83D207B681A6898
:1013F0007B6804331946104600F0AEF97B68012281
:1014000083F846207B68012283F83E207B68012216
:1014100083F83F207B68012283F840207B6801220B
:1014200083F841207B68012283F842207B680122F7
:1014300083F843207B68012283F844207B680122E3
:1014400083F845207B68012283F83D20002318465D
:101450000837BD4680BD80B483B000AF786000BF60
:101460000C37BD4680BC704780B485B000AF786053
:101470007B6893F83D30DBB2012B01D0012335E0CE
:101480007B68022283F83D207B681B68DA687B68F2
:101490001B6842F00102DA607B681B68164A9342BF
:1014A00009D07B681B68B3F1804F04D07B681B6850
:1014B000124A934211D17B681B689B6803F00703B3
:1014C000FB60FB68062B10D07B681B681A687B6882
:1014D0001B6842F001021A6007E07B681B681A680B
:1014E0007B681B6842F001021A600023184614371B
:1014F000BD4680BC704700BF002C01400004004086
:1015000080B582B000AF78607B681B681B6903F010
:101510000203022B22D17B681B68DB6803F0020305
:10152000022B1BD17B681B686FF002021A617B687B
:1015300001221A777B681B689B6903F00303002B69
:1015400003D0786800F0EDF805E0786800F0E0F886
:10155000786800F0EFF87B6800221A777B681B68D8
:101560001B6903F00403042B22D17B681B68DB6832
:1015700003F00403042B1BD17B681B686FF004028B
:101580001A617B6802221A777B681B689B6903F4E7
:101590004073002B03D0786800F0C3F805E078684A
:1015A00000F0B6F8786800F0C5F87B6800221A777A
:1015B0007B681B681B6903F00803082B22D17B683A
:1015C0001B68DB6803F00803082B1BD17B681B68D2
:1015D0006FF008021A617B6804221A777B681B6827
:1015E000DB6903F00303002B03D0786800F099F85F
:1015F00005E0786800F08CF8786800F09BF87B686C
:1016000000221A777B681B681B6903F01003102BFC
:1016100022D17B681B68DB6803F01003102B1BD101
:101620007B681B686FF010021A617B6808221A77CA
:101630007B681B68DB6903F44073002B03D0786878
:1016400000F06FF805E0786800F062F8786800F064
:1016500071F87B6800221A777B681B681B6903F0AE
:101660000103012B0ED17B681B68DB6803F00103CB
:10167000012B07D17B681B686FF001021A61786843
:10168000FEF7AAFE7B681B681B6903F08003802BB2
:101690000ED17B681B68DB6803F08003802B07D1C9
:1016A0007B681B686FF080021A61786800F0B5F8FB
:1016B0007B681B681B6903F04003402B0ED17B68DD
:1016C0001B68DB6803F04003402B07D17B681B6875
:1016D0006FF040021A61786800F035F87B681B688B
:1016E0001B6903F02003202B0ED17B681B68DB688D
:1016F00003F02003202B07D17B681B686FF02002CA
:101700001A61786800F080F800BF0837BD4680BDD8
:1017100080B483B000AF786000BF0C37BD4680BC9A
:10172000704780B483B000AF786000BF0C37BD460F
:1017300080BC704780B483B000AF786000BF0C37C6
:10174000BD4680BC704780B483B000AF786000BFF6
:101750000C37BD4680BC704780B485B000AF786060
:1017600039607B681B68FB607B68254A934207D021
:101770007B68B3F1804F03D07B68224A934208D143
:10178000FB6823F07003FB603B685B68FA681343F7
:10179000FB607B681A4A934207D07B68B3F1804FA5
:1017A00003D07B68174A934208D1FB6823F4407347
:1017B000FB603B68DB68FA681343FB60FB6823F05F
:1017C00080023B685B691343FB607B68FA681A60C0
:1017D0003B689A687B68DA623B681A687B689A6241
:1017E0007B68074A934203D13B681A697B681A6396
:1017F0007B6801225A6100BF1437BD4680BC704728
:10180000002C01400004004080B483B000AF786039
:1018100000BF0C37BD4680BC704780B483B000AFBA
:10182000786000BF0C37BD4680BC704780B485B07F
:1018300000AF0346FB800023FB60B7F90630842B22
:1018400005D0B7F90620FB6813440333FB60FB683F
:1018500018461437BD4680BC704780B483B000AFD3
:10186000EFF305837B607B68002B14BF012300230B
:10187000DBB218460C37BD4680BC704780B500AF60
:1018800001F036F90023184680BDF0B589B004AFE9
:10189000786039607B685B69002B20D07B689B692E
:1018A000002B1CD07B685C687B681D687B681E69A8
:1018B0007B68B3F908301846FFF7B8FF01467B682C
:1018C0005B697A6892690292019300913B683246A3
:1018D0002946204600F02FFF0346FB601CE07B6892
:1018E0005C687B681D687B681B699EB27B68B3F986
:1018F00008301846FFF79AFF024607F10C030193E0
:1019000000923B6832462946204600F073FF0346AA
:10191000012B01D0002300E0FB6818461437BD46B8
:10192000F0BD80B584B000AF78607B68FB60FB6879
:10193000002B01D0FB6800E00123184601F0A2F85B
:10194000002318461037BD4680BD80B586B002AF73
:10195000786039607B685B68002B0FD03B68012B97
:101960000AD17B685B6803220092002200210120DB
:1019700000F0BCF9034616E0002314E03B68012B9D
:1019800010D103220021012000F02CFAF860FB683E
:10199000002B05D0002300220021F86800F080FA17
:1019A000FB6800E0002318461037BD4680BD0000EC
:1019B00080B584B000AF786039600023BB607B687D
:1019C000002B01D180233AE00023FB603B68B3F198
:1019D000FF3F03D14FF0FF33FB6009E03B68002B72
:1019E00006D03B68FB60FB68002B01D10123FB6044
:1019F000FFF733FF0346002B17D007F108031A4601
:101A00000021786800F0EEFC0346012B01D0FF2393
:101A100015E0BB68002B11D00B4B4FF080521A60C1
:101A2000BFF34F8FBFF36F8F08E0F968786800F05D
:101A3000C9FB0346012B01D0FF2300E00023184619
:101A40001037BD4680BD00BF04ED00E080B584B016
:101A500000AF78600023FB600023BB60FFF7FDFE52
:101A60000346002B16D007F108031946786800F0EA
:101A700019FB0346012B01D0FF2317E0BB68002BA5
:101A800013D00C4B4FF080521A60BFF34F8FBFF34F
:101A90006F8F0AE0002300220021786800F000FA2E
:101AA0000346012B01D0FF23FB60FB68184610376B
:101AB000BD4680BD04ED00E080B483B000AF786027
:101AC0007B6803F108027B685A607B684FF0FF3245
:101AD0009A607B6803F108027B68DA607B6803F137
:101AE00008027B681A617B6800221A6000BF0C370D
:101AF000BD4680BC704780B483B000AF78607B681F
:101B000000221A6100BF0C37BD4680BC704780B40C
:101B100085B000AF786039607B685B68FB603B68CC
:101B2000FA685A60FB689A683B689A60FB689B6831
:101B30003A685A60FB683A689A603B687A681A614A
:101B40007B681B685A1C7B681A6000BF1437BD464F
:101B500080BC704780B485B000AF786039603B6866
:101B60001B68BB60BB68B3F1FF3F03D17B681B6997
:101B7000FB600CE07B680833FB6002E0FB685B689D
:101B8000FB60FB685B681B68BA689A42F6D2FB6828
:101B90005A683B685A603B685B683A689A603B6881
:101BA000FA689A60FB683A685A603B687A681A611A
:101BB0007B681B685A1C7B681A6000BF1437BD46DF
:101BC00080BC704780B485B000AF78607B681B69CB
:101BD000FB607B685B687A6892689A607B689B6848
:101BE0007A6852685A60FB685B687A689A4203D1E7
:101BF0007B689A68FB685A607B6800221A61FB6800
:101C00001B685A1EFB681A60FB681B68184614376D
:101C1000BD4680BC7047000080B584B000AF7860DE
:101C200039607B68FB60FB68002B0BD14FF05003E1
:101C300083F31188BFF36F8FBFF34F8FBB6000BF7B
:101C400000BFFDE701F0B2FEFB681A68FB68DB6BC2
:101C5000F968096C01FB03F31A44FB685A60FB68DE
:101C600000229A63FB681A68FB689A60FB681A682E
:101C7000FB68DB6B013BF968096C01FB03F31A4459
:101C8000FB68DA60FB68FF2283F84420FB68FF22D0
:101C900083F845203B68002B14D1FB681B69002B9F
:101CA0001AD0FB681033184601F07EF90346002B6A
:101CB00012D00D4B4FF080521A60BFF34F8FBFF31D
:101CC0006F8F09E0FB6810331846FFF7F5FEFB68DD
:101CD00024331846FFF7F0FE01F098FE0123184662
:101CE0001037BD4680BD00BF04ED00E080B58EB06A
:101CF00002AFF860B9607A603B60FB68002B0BD1E3
:101D00004FF0500383F31188BFF36F8FBFF34F8FF2
:101D1000BB6200BF00BFFDE73B68002B0BD14FF05B
:101D2000500383F31188BFF36F8FBFF34F8F7B6234
:101D300000BF00BFFDE77B68002B02D0BB68002B13
:101D400001D0012300E00023002B0BD14FF0500302
:101D500083F31188BFF36F8FBFF34F8F3B6200BFD8
:101D600000BFFDE77B68002B02D1BB68002B01D1CF
:101D7000012300E00023002B0BD14FF0500383F32D
:101D80001188BFF36F8FBFF34F8FFB6100BF00BFA0
:101D9000FDE748237B617B69482B0BD04FF0500354
:101DA00083F31188BFF36F8FBFF34F8FBB6100BF09
:101DB00000BFFDE73B68FB62FB6A002B0DD0FB6AAE
:101DC000012283F8462097F83820FB6A00931346D7
:101DD0007A68B968F86800F044F8FB6A184630374A
:101DE000BD4680BD80B58AB002AFF860B9601346C9
:101DF000FB71FB68002B0BD14FF0500383F311886C
:101E0000BFF36F8FBFF34F8F3B6100BF00BFFDE794
:101E1000BB68002B02D10023FB6104E0FB68BA68B9
:101E200002FB03F3FB61FB694833184601F0C0FE77
:101E3000B861BB69002B0FD0BB6948337B61BB69BC
:101E4000002283F84620FA79BB69009313467A6929
:101E5000B968F86800F005F8BB6918462037BD4638
:101E600080BD80B584B000AFF860B9607A60FB7067
:101E7000BB68002B03D1BB69BA691A6002E0BB6979
:101E80007A681A60BB69FA68DA63BB69BA681A646F
:101E90000121B869FFF7C0FE00BF1037BD4680BD05
:101EA00080B58EB000AFF860B9607A603B60002307
:101EB0007B63FB683B633B6B002B0BD14FF0500304
:101EC00083F31188BFF36F8FBFF34F8FBB6200BFE7
:101ED00000BFFDE7BB68002B03D13B6B1B6C002BE5
:101EE00001D1012300E00023002B0BD14FF0500360
:101EF00083F31188BFF36F8FBFF34F8F7B6200BFF7
:101F000000BFFDE73B68022B03D13B6BDB6B012B72
:101F100001D1012300E00023002B0BD14FF050032F
:101F200083F31188BFF36F8FBFF34F8F3B6200BF06
:101F300000BFFDE701F002FA0346002B02D17B68E7
:101F4000002B01D1012300E00023002B0BD14FF027
:101F5000500383F31188BFF36F8FBFF34F8FFB6183
:101F600000BF00BFFDE701F021FD3B6B9A6B3B6BAF
:101F7000DB6B9A4202D33B68022B29D13A68B968DD
:101F8000386B00F0C8FAF8623B6B5B6A002B10D02C
:101F90003B6B2433184601F007F80346002B13D09F
:101FA0003F4B4FF080521A60BFF34F8FBFF36F8FDC
:101FB0000AE0FB6A002B07D0394B4FF080521A60C1
:101FC000BFF34F8FBFF36F8F01F020FD012363E05C
:101FD0007B68002B03D101F019FD00235CE07B6BD3
:101FE000002B06D107F11403184601F041F8012334
:101FF0007B6301F00BFD00F0E5FD01F0D7FC3B6BCE
:1020000093F844305BB2B3F1FF3F03D13B6B002246
:1020100083F844203B6B93F845305BB2B3F1FF3F4C
:1020200003D13B6B002283F8452001F0EFFC3A1D01
:1020300007F114031146184601F030F80346002B4F
:1020400024D1386B00F05FFB0346002B18D03B6BAC
:1020500010337A681146184600F080FF386B00F0A4
:10206000EAFA00F0BDFD0346002B7FF47CAF0C4B79
:102070004FF080521A60BFF34F8FBFF36F8F72E73C
:10208000386B00F0D8FA00F0ABFD6CE7386B00F06D
:10209000D2FA00F0A5FD002318463837BD4680BDB2
:1020A00004ED00E080B58EB000AF786039607B68E9
:1020B0003B633B6B002B0BD14FF0500383F3118834
:1020C000BFF36F8FBFF34F8F3B6200BF00BFFDE7D1
:1020D0003B6B1B6C002B0BD04FF0500383F311882C
:1020E000BFF36F8FBFF34F8FFB6100BF00BFFDE7F2
:1020F0003B6B1B68002B03D13B6B5B68002B01D152
:10210000012300E00023002B0BD14FF0500383F399
:102110001188BFF36F8FBFF34F8FBB6100BF00BF4C
:10212000FDE701F005FDEFF311824FF0500383F35B
:102130001188BFF36F8FBFF34F8F7A613B617B696B
:10214000FB623B6B9B6BBB623B6BDB6BBA6A9A427D
:102150002BD23B6B93F8453087F82730BB6A5A1C6B
:102160003B6B9A6397F92730B3F1FF3F12D13B6B7A
:102170005B6A002B16D03B6B2433184600F014FF2B
:102180000346002B0ED03B68002B0BD03B6801228E
:102190001A6007E097F827300133DBB25AB23B6B85
:1021A00083F8452001237B6301E000237B63FB6A06
:1021B000FB60FB6883F3118800BF7B6B18463837E0
:1021C000BD4680BD80B58EB000AF78603960002319
:1021D0007B637B68FB6200233B63FB6A002B0BD1B4
:1021E0004FF0500383F31188BFF36F8FBFF34F8F0E
:1021F0003B6200BF00BFFDE7FB6A1B6C002B0BD0EE
:102200004FF0500383F31188BFF36F8FBFF34F8FED
:10221000FB6100BF00BFFDE701F090F80346002B13
:1022200002D13B68002B01D1012300E00023002BE9
:102230000BD14FF0500383F31188BFF36F8FBFF3BF
:102240004F8FBB6100BF00BFFDE701F0AFFBFB6A32
:102250009B6BBB62BB6A002B24D0BB6A5A1EFB6A15
:102260009A63FB6A1B68002B04D101F035FA024621
:10227000FB6A5A60FB6A1B69002B0FD0FB6A1033A4
:10228000184600F091FE0346002B07D0544B4FF048
:1022900080521A60BFF34F8FBFF36F8F01F0B6FB10
:1022A000012398E03B68002B12D13B6B002B0BD035
:1022B0004FF0500383F31188BFF36F8FBFF34F8F3D
:1022C0007B6100BF00BFFDE701F0A0FB002382E0BF
:1022D0007B6B002B06D107F10C03184600F0C8FEFB
:1022E00001237B6301F092FB00F06CFC01F05EFBCC
:1022F000FB6A93F844305BB2B3F1FF3F03D1FB6A52
:10230000002283F84420FB6A93F845305BB2B3F1B6
:10231000FF3F03D1FB6A002283F8452001F076FBE2
:102320003A4607F10C031146184600F0B7FE034683
:10233000002B32D1F86A00F0D0F90346002B26D0EA
:10234000FB6A1B68002B09D101F030FBFB6A5B685C
:10235000184601F011F8386301F058FBFB6A24338A
:102360003A681146184600F0F9FDF86A00F063F982
:1023700000F036FC0346002B7FF467AF184B4FF09C
:1023800080521A60BFF34F8FBFF36F8F5DE7F86A1B
:1023900000F051F900F024FC57E7F86A00F04BF91F
:1023A00000F01EFCF86A00F098F90346002B3FF499
:1023B0004CAF3B6B002B0DD001F0F8FAF86A00F03F
:1023C00093F87862FB6A5B68796A184601F0E2F874
:1023D00001F01CFB002318463837BD4680BD00BF06
:1023E00004ED00E080B58EB000AFF860B9607A60AF
:1023F000FB683B633B6B002B0BD14FF0500383F327
:102400001188BFF36F8FBFF34F8F3B6200BF00BFD8
:10241000FDE7BB68002B03D13B6B1B6C002B01D18C
:10242000012300E00023002B0BD14FF0500383F376
:102430001188BFF36F8FBFF34F8FFB6100BF00BFE9
:10244000FDE701F075FBEFF311824FF0500383F3CA
:102450001188BFF36F8FBFF34F8FBA617B61BB6988
:10246000FB623B6B9B6BBB62BB6A002B2FD03B6B51
:1024700093F8443087F82730B968386B00F0B5F826
:10248000BB6A5A1E3B6B9A6397F92730B3F1FF3F43
:1024900012D13B6B1B69002B16D03B6B10331846D7
:1024A00000F082FD0346002B0ED07B68002B0BD082
:1024B0007B6801221A6007E097F827300133DBB20E
:1024C0005AB23B6B83F8442001237B6301E0002375
:1024D0007B63FB6A3B613B6983F3118800BF7B6BC5
:1024E00018463837BD4680BD80B485B000AF7860EF
:1024F0007B685B6A002B06D07B681B6B1B68C3F193
:102500000703FB6001E00023FB60FB6818461437FB
:10251000BD4680BC704780B586B000AFF860B9603A
:102520007A6000237B61FB689B6B3B61FB681B6CE3
:10253000002B0DD1FB681B68002B4DD1FB685B683D
:10254000184600F09FFF7861FB6800225A6043E064
:102550007B68002B19D1FB689868FB681B6C1A46D6
:10256000B96801F087FDFB689A68FB681B6C1A4428
:10257000FB689A60FB689A68FB685B689A422BD399
:10258000FB681A68FB689A6026E0FB68D868FB68FD
:102590001B6C1A46B96801F06DFDFB68DA68FB68D0
:1025A0001B6C5B421A44FB68DA60FB68DA68FB6804
:1025B0001B689A4207D2FB685A68FB681B6C5B4237
:1025C0001A44FB68DA607B68022B05D13B69002B5B
:1025D00002D03B69013B3B613B695A1CFB689A6333
:1025E0007B6918461837BD4680BD80B582B000AF04
:1025F000786039607B681B6C002B18D07B68DA68C8
:102600007B681B6C1A447B68DA607B68DA687B68DD
:102610005B689A4203D37B681A687B68DA607B68E0
:10262000D9687B681B6C1A46386801F023FD00BF2F
:102630000837BD4680BD80B584B000AF786001F03A
:10264000B5F97B6893F84530FB7311E07B685B6AF2
:10265000002B12D07B682433184600F0A5FC0346FB
:10266000002B01D000F07EFDFB7B013BDBB2FB7356
:1026700097F90F30002BE9DC00E000BF7B68FF22F8
:1026800083F8452001F0C2F901F090F97B6893F8D6
:102690004430BB7311E07B681B69002B12D07B6850
:1026A0001033184600F080FC0346002B01D000F0E8
:1026B00059FDBB7B013BDBB2BB7397F90E30002B9E
:1026C000E9DC00E000BF7B68FF2283F8442001F0D2
:1026D0009DF900BF1037BD4680BD80B584B000AF06
:1026E000786001F063F97B689B6B002B02D10123BA
:1026F000FB6001E00023FB6001F088F9FB681846ED
:102700001037BD4680BD80B584B000AF786001F061
:102710004DF97B689A6B7B68DB6B9A4202D101238F
:10272000FB6001E00023FB6001F070F9FB681846D4
:102730001037BD4680BD80B58EB004AFF860B9607B
:102740007A603B607B6B002B0BD14FF0500383F31F
:102750001188BFF36F8FBFF34F8F3B6200BF00BF85
:10276000FDE7BB6B002B0BD14FF0500383F31188B7
:10277000BFF36F8FBFF34F8FFB6100BF00BFFDE75B
:10278000A0233B613B69A02B0BD04FF0500383F398
:102790001188BFF36F8FBFF34F8FBB6100BF00BFC6
:1027A000FDE7BB6B002B1ED07B6B002B1BD0BB6BE4
:1027B0007B627B6A7A6B1A637B6A022283F89D20B4
:1027C000002303937B6A029307F1140301933B6B8D
:1027D00000933B687A68B968F86800F051F8786A45
:1027E00000F0E6F801E000237B617B69184628379A
:1027F000BD4680BD80B58CB004AFF860B9603B6069
:102800001346FB80FB889B00184601F0D1F97861E4
:102810007B69002B0ED0A02001F0CAF9F861FB699A
:10282000002B03D0FB697A691A6305E0786901F02F
:1028300087FA01E00023FB61FB69002B17D0FB69DD
:10284000002283F89D20FA8800230393FB690293FA
:10285000FB6A0193BB6A00933B68B968F86800F0B3
:102860000FF8F86900F0A4F80123BB6102E04FF013
:10287000FF33BB61BB6918462037BD4680BD0000F1
:1028800080B588B000AFF860B9607A603B603B6BA0
:102890001A6B7B6803F18043013B9B001344BB61CF
:1028A000BB6923F00703BB61BB6903F00703002B7F
:1028B0000BD04FF0500383F31188BFF36F8FBFF33A
:1028C0004F8F7B6100BF00BFFDE70023FB6112E07B
:1028D000BA68FB69134419783A6BFB6913443433C3
:1028E0000A461A70BA68FB6913441B78002B06D09D
:1028F000FB690133FB61FB690F2BE9D900E000BFE5
:102900003B6B002283F84320BB6A062B01D90623C8
:10291000BB623B6BBA6ADA623B6BBA6A5A643B6B66
:1029200000229A643B6B04331846FFF7E4F83B6BD4
:1029300018331846FFF7DFF83B6B3A6B1A61BB6A36
:10294000C3F107023B6B9A613B6B3A6B5A623B6B7C
:102950000022C3F898203B6B002283F89C203B6B3D
:102960004C334C220021184601F000FB3B6B0D4A12
:102970001A653B6B0C4A5A653B6B0C4A9A653A6880
:10298000F968B86900F022FF02463B6B1A60FB6AE7
:10299000002B02D0FB6A3A6B1A6000BF2037BD469D
:1029A00080BD00BFC41000202C1100209411002015
:1029B00080B582B000AF786000F0F8FF2A4B1B684A
:1029C0000133294A1360294B1B68002B09D1274A80
:1029D0007B681360244B1B68012B10D100F0E6FBD1
:1029E0000DE0234B1B68002B09D1204B1B68DA6AD2
:1029F0007B68DB6A9A4202D81C4A7B6813601D4BD5
:102A00001B6801331B4A13607B68DB6A01229A4012
:102A1000194B1B681343184A13607B68DA6A134624
:102A20009B0013449B00154A1A447B6804331946E3
:102A30001046FFF76CF800F0E9FF0D4B1B68002B08
:102A40000ED00A4B1B68DA6A7B68DB6A9A4207D2AF
:102A50000B4B4FF080521A60BFF34F8FBFF36F8F55
:102A600000BF0837BD4680BD7804002078030020F1
:102A70008404002094040020800400207C030020B3
:102A800004ED00E080B584B000AF78600023FB6007
:102A90007B68002B18D0144B1B68002B0BD04FF019
:102AA000500383F31188BFF36F8FBFF34F8FBB6069
:102AB00000BF00BFFDE700F085F80021786800F056
:102AC0001FFE00F08DF8F860FB68002B07D1074B64
:102AD0004FF080521A60BFF34F8FBFF36F8F00BF6C
:102AE0001037BD4680BD00BFA004002004ED00E00B
:102AF00080B58AB004AF0023BB6000237B603A46F8
:102B0000391D07F108031846FDF722FB39687B6879
:102B1000BA68029201930023009300230A462149D8
:102B20002148FFF708FE0346204A13601F4B1B682D
:102B3000002B02D001237B6101E000237B617B69D4
:102B4000012B1BD14FF0500383F31188BFF36F8F1C
:102B5000BFF34F8F3B6100BF154B1B684C33154AC9
:102B60001360154B4FF0FF321A60144B01221A60AC
:102B7000134B00221A6000F0A7FE0FE07B69B3F14F
:102B8000FF3F0BD14FF0500383F31188BFF36F8FDA
:102B9000BFF34F8FFB6000BF00BFFDE700BF1837DA
:102BA000BD4680BDC04100087D3100089C04002066
:102BB00078030020100000209804002084040020E6
:102BC0007C04002080B400AF044B1B680133034A2F
:102BD000136000BFBD4680BC704700BFA00400204A
:102BE00080B584B000AF0023FB600023BB60424B84
:102BF0001B68002B0BD14FF0500383F31188BFF3F8
:102C00006F8FBFF34F8F3B6000BF00BFFDE700F049
:102C1000CDFE394B1B68013B374A1360364B1B68AE
:102C2000002B61D1354B1B68002B5DD02EE0344B5F
:102C3000DB68DB68FB60FB6818331846FEF7C2FFF1
:102C4000FB6804331846FEF7BDFFFB68DB6A012210
:102C50009A402C4B1B6813432A4A1360FB68DA6ABC
:102C600013469B0013449B00274A1A44FB68043315
:102C700019461046FEF74BFFFB68DA6A234B1B68C8
:102C8000DB6A9A4202D3224B01221A601C4B1B685A
:102C9000002BCCD1FB68002B01D000F02BFB1D4B8F
:102CA0001B687B607B68002B10D000F037F8034670
:102CB000002B02D0164B01221A607B68013B7B601F
:102CC0007B68002BF1D1134B00221A60104B1B685C
:102CD000002B09D00123BB600F4B4FF080521A60CC
:102CE000BFF34F8FBFF36F8F00F090FEBB681846A5
:102CF0001037BD4680BD00BFA0040020780400202E
:102D000038040020800400207C0300207803002089
:102D10008C0400208804002004ED00E080B586B01B
:102D200000AF00237B61514B1B68002B40F08E806D
:102D30004F4B1B6801333B614D4A3B6913603B6954
:102D4000002B21D14B4B1B681B68002B0BD04FF085
:102D5000500383F31188BFF36F8FBFF34F8F3B6036
:102D600000BF00BFFDE7434B1B68FB60424B1B6885
:102D7000404A1360404AFB681360404B1B680133B4
:102D80003E4A136000F0B6FA3D4B1B683A699A421E
:102D90004DD3384B1B681B68002B01D1012300E089
:102DA0000023002B04D0364B4FF0FF321A603EE078
:102DB000304B1B68DB68DB68BB60BB685B687B60B3
:102DC0003A697B689A4203D22D4A7B6813602EE0F1
:102DD000BB6804331846FEF7F5FEBB689B6A002B00
:102DE00004D0BB6818331846FEF7ECFEBB68DB6AFC
:102DF00001229A40234B1B681343224A1360BB688D
:102E0000DA6A13469B0013449B001F4A1A44BB68AE
:102E1000043319461046FEF77AFEBB68DA6A1B4B8C
:102E20001B68DB6A9A42B4D301237B61B1E7174B7D
:102E30001B68DA6A144913469B0013449B000B4439
:102E40001B68012B07D901237B6104E0104B1B6831
:102E500001330F4A13600F4B1B68002B01D0012375
:102E60007B617B6918461837BD4680BDA0040020F1
:102E70007C04002030040020340400209004002052
:102E800098040020800400207C03002078030020A8
:102E9000880400208C04002080B487B000AF294B48
:102EA0001B68002B03D0284B01221A6045E0264BFB
:102EB00000221A60254B1B68FB60FB68B3FA83F3A2
:102EC000FB72FB7AC3F11F037B6121497A691346C8
:102ED0009B0013449B000B441B68002B0BD14FF04D
:102EE000500383F31188BFF36F8FBFF34F8F7B6065
:102EF00000BF00BFFDE77A6913469B0013449B00A7
:102F0000134A13443B613B695B685A683B695A60EA
:102F10003B695A683B6908339A4204D13B695B6854
:102F20005A683B695A603B695B68DB68094A136011
:102F3000084B1B684C33084A136000BF1C37BD4662
:102F400080BC7047A00400208C0400208004002076
:102F50007C030020780300201000002080B584B09E
:102F600000AF786039607B68002B0BD14FF05003C5
:102F700083F31188BFF36F8FBFF34F8FFB6000BFE8
:102F800000BFFDE7074B1B68183319467868FEF74A
:102F9000E1FD0121386800F0B3FB00BF1037BD46EA
:102FA00080BD00BF7803002080B586B000AF786098
:102FB0007B68DB68DB683B613B69002B0BD14FF022
:102FC000500383F31188BFF36F8FBFF34F8FFB6004
:102FD00000BF00BFFDE73B6918331846FEF7F2FD5E
:102FE0001D4B1B68002B1CD13B6904331846FEF7B0
:102FF000E9FD3B69DB6A01229A40184B1B681343C9
:10300000164A13603B69DA6A13469B0013449B001F
:10301000134A1A443B69043319461046FEF777FDFC
:1030200005E03B69183319460E48FEF770FD3B6911
:10303000DA6A0D4B1B68DB6A9A4205D901237B6172
:103040000A4B01221A6001E000237B617B6918466C
:103050001837BD4680BD00BFA004002080040020BA
:103060007C03002038040020780300208C0400201A
:1030700080B483B000AF7860064B1A687B681A6032
:10308000054B1A687B685A6000BF0C37BD4680BC90
:10309000704700BF900400207C04002080B588B0F9
:1030A00000AF786039607B68002B0BD14FF0500384
:1030B00083F31188BFF36F8FBFF34F8F3B6100BF66
:1030C00000BFFDE73B68002B0BD14FF0500383F3AB
:1030D0001188BFF36F8FBFF34F8FFB6000BF00BF3E
:1030E000FDE700F063FC1D4B1B68BB617B685B6800
:1030F000BA69D31A7B613B681B68B3F1FF3F02D109
:103100000023FB6123E07B681A68154B1B689A4219
:1031100007D07B685B68BA699A4202D30123FB61DE
:1031200015E03B681B687A699A420BD23B681A68C3
:103130007B69D21A3B681A607868FFF799FF002311
:10314000FB6104E03B6800221A600123FB6100F090
:103150005DFCFB6918462037BD4680BD7C0400201D
:103160009004002080B400AF034B01221A6000BF1E
:10317000BD4680BC704700BF8C04002080B582B083
:1031800000AF786000F052F8064B1B68012BF9D9AC
:10319000054B4FF080521A60BFF34F8FBFF36F8F14
:1031A000F0E700BF7C03002004ED00E080B582B0B2
:1031B00000AF00237B600CE07A6813469B00134449
:1031C0009B00124A13441846FEF776FC7B680133D5
:1031D0007B607B68062BEFD90D48FEF76DFC0D4830
:1031E000FEF76AFC0C48FEF767FC0C48FEF764FC2F
:1031F0000B48FEF761FC0B4B054A1A600A4B054A67
:103200001A6000BF0837BD4680BD00BF7C030020A8
:10321000080400201C040020380400204C04002076
:1032200064040020300400203404002080B582B003
:1032300000AF19E000F0BAFB104BDB68DB687B6085
:103240007B6804331846FEF7BDFC0D4B1B68013B41
:103250000B4A13600B4B1B68013B0A4A136000F0DA
:10326000D5FB786800F010F8064B1B68002BE1D105
:1032700000BF00BF0837BD4680BD00BF4C04002022
:10328000780400206004002080B584B000AF78602E
:103290007B684C33184600F071FE7B6893F89D30D4
:1032A000002B08D17B681B6B184600F049FD78683D
:1032B00000F046FD19E07B6893F89D30012B03D1A7
:1032C000786800F03DFD10E07B6893F89D30022B9C
:1032D0000BD04FF0500383F31188BFF36F8FBFF310
:1032E0004F8FFB6000BF00BFFDE700BF1037BD463A
:1032F00080BD000080B483B000AF0E4B1B681B681C
:10330000002B01D1012300E00023002B04D00A4B45
:103310004FF0FF321A6008E0064B1B68DB68DB6881
:103320007B607B685B68044A136000BF0C37BD4656
:1033300080BC7047300400209804002080B483B023
:1033400000AF0B4B1B68002B02D101237B6008E010
:10335000084B1B68002B02D102237B6001E0002395
:103360007B607B6818460C37BD4680BC704700BF49
:1033700084040020A004002080B584B000AF7860F1
:103380007B68BB600023FB607B68002B6ED0BB6852
:10339000DA6A394B1B68DB6A9A425ED2BB689B696A
:1033A000002B06DB344B1B68DB6AC3F10702BB68EA
:1033B0009A61BB685969BB68DA6A13469B0013447B
:1033C0009B002E4A1344994201D1012300E00023BF
:1033D000002B3AD0BB6804331846FEF7F3FB0346D4
:1033E000002B15D1BB68DA6A244913469B001344AD
:1033F0009B000B441B68002B0AD1BB68DB6A0122CF
:1034000002FA03F3DA431E4B1B6813401C4A136095
:10341000194B1B68DA6ABB68DA62BB68DB6A012297
:103420009A40174B1B681343154A1360BB68DA6A4E
:1034300013469B0013449B00104A1A44BB68043394
:1034400019461046FEF763FB04E00B4B1B68DA6A73
:10345000BB68DA620123FB6008E0BB685A6C064B6C
:103460001B68DB6A9A4201D20123FB60FB681846A5
:103470001037BD4680BD00BF780300207C030020CC
:103480008004002080B586B000AF78607B683B6127
:1034900000237B617B68002B70D03B4B1B683A6933
:1034A0009A420BD04FF0500383F31188BFF36F8F14
:1034B000BFF34F8FFB6000BF00BFFDE73B699B6C14
:1034C000002B0BD14FF0500383F31188BFF36F8FA4
:1034D000BFF34F8FBB6000BF00BFFDE73B699B6C34
:1034E0005A1E3B699A643B69DA6A3B695B6C9A4293
:1034F00044D03B699B6C002B40D13B690433184698
:10350000FEF760FB0346002B15D13B69DA6A1F49C1
:1035100013469B0013449B000B441B68002B0AD1ED
:103520003B69DB6A012202FA03F3DA43184B1B689A
:103530001340174A13603B695A6C3B69DA623B6976
:10354000DB6AC3F107023B699A613B69DB6A0122CE
:103550009A400F4B1B6813430D4A13603B69DA6AAC
:1035600013469B0013449B00084A1A443B690433EA
:1035700019461046FEF7CBFA01237B617B6918469A
:103580001837BD4680BD00BF780300207C030020B3
:103590008004002080B588B000AF786039607B6817
:1035A000BB6101237B617B68002B00F08A80BB69D3
:1035B0009B6C002B0BD14FF0500383F31188BFF3AA
:1035C0006F8FBFF34F8FFB6000BF00BFFDE7BB698C
:1035D0005B6C3A689A4202D93B68FB6102E0BB69C6
:1035E0005B6CFB61BB69DB6AFA699A4269D0BB69B3
:1035F0009B6C7A699A4264D1344B1B68BA699A42CF
:103600000BD14FF0500383F31188BFF36F8FBFF3DB
:103610004F8FBB6000BF00BFFDE7BB69DB6A3B614A
:10362000BB69FA69DA62BB699B69002B04DBFB6941
:10363000C3F10702BB699A61BB6959693A691346CC
:103640009B0013449B00224A1344994201D1012359
:1036500000E00023002B34D0BB6904331846FEF78A
:10366000B1FA0346002B15D1BB69DA6A1849134633
:103670009B0013449B000B441B68002B0AD1BB69C1
:10368000DB6A012202FA03F3DA43124B1B68134090
:10369000104A1360BB69DB6A01229A400D4B1B681C
:1036A00013430C4A1360BB69DA6A13469B00134448
:1036B0009B00074A1A44BB69043319461046FEF7BB
:1036C00026FA00BF2037BD4680BD00BF780300202A
:1036D0007C0300208004002080B400AF074B1B68EF
:1036E000002B04D0054B1B689A6C01329A64034B83
:1036F0001B681846BD4680BC704700BF7803002099
:1037000080B584B000AF78603960294B1B68FB60DE
:10371000284B1B6804331846FEF754FA0346002B67
:103720000BD1244B1B68DB6A012202FA03F3DA4354
:10373000214B1B681340204A13607B68B3F1FF3FA5
:103740000AD13B68002B07D01A4B1B68043319467B
:103750001A48FEF7DCF926E0FA687B681344BB6080
:10376000144B1B68BA685A60BA68FB689A4209D25F
:10377000134B1A680F4B1B68043319461046FEF7AB
:10378000E9F910E00F4B1A680A4B1B68043319461D
:103790001046FEF7DFF90C4B1B68BA689A4202D25A
:1037A000094ABB68136000BF1037BD4680BD00BF2B
:1037B0007C040020780300208004002064040020A2
:1037C00034040020300400209804002080B485B028
:1037D00000AFF860B9607A60FB68043BFB60FB688F
:1037E0004FF080721A60FB68043BFB60BB6823F0FB
:1037F0000102FB681A60FB68043BFB60084AFB6837
:103800001A60FB68143BFB607A68FB681A60FB680F
:10381000203BFB60FB6818461437BD4680BC7047F0
:103820002538000880B485B000AF00237B60124BC0
:103830001B68B3F1FF3F0BD04FF0500383F31188A7
:10384000BFF36F8FBFF34F8FFB6000BF00BFFDE77B
:103850004FF0500383F31188BFF36F8FBFF34F8F87
:10386000BB6000BF00BF7B68002BFCD000BF00BF67
:103870001437BD4680BC70470C00002000000000DB
:10388000074B19680868B0E8F00F80F30988BFF3A8
:103890006F8F4FF0000080F311884EF00D0E7047CF
:1038A0007803002000BF00BF06480068006880F36E
:1038B000088862B661B6BFF34F8FBFF36F8F00DF2A
:1038C00000BF00BF08ED00E080B584B000AF324B10
:1038D000FB60FB681B78DBB27B60FB68FF221A7021
:1038E000FB681B78DBB2FB70FB78DBB203F05003A4
:1038F000DAB22A4B1A702A4B07221A6009E0284BC9
:103900001B68013B264A1360FB78DBB25B00DBB22D
:10391000FB70FB78DBB203F08003802BEFD0204BF1
:103920001B68C3F10703042B0BD04FF0500383F344
:103930001188BFF36F8FBFF34F8FBB6000BF00BF15
:10394000FDE7174B1B681B02154A1360144B1B68DD
:1039500003F4E063124A13607B68DAB2FB681A7002
:10396000104B1B680F4A43F4700313600D4B1B6828
:103970000C4A43F07043136000F0B8F80A4B002281
:103980001A60FFF791FFFFF787FAFFF74BFF00235D
:1039900018461037BD4680BD00E400E0A4040020B6
:1039A000A804002020ED00E00C00002080B483B0CB
:1039B00000AF4FF0500383F31188BFF36F8FBFF355
:1039C0004F8F7B6000BF0F4B1B6801330D4A1360A4
:1039D0000C4B1B68012B10D10B4B1B68DBB2002B6F
:1039E0000BD04FF0500383F31188BFF36F8FBFF3F9
:1039F0004F8F3B6000BF00BFFDE700BF0C37BD46E7
:103A000080BC70470C00002004ED00E080B483B05F
:103A100000AF124B1B68002B0BD14FF0500383F308
:103A20001188BFF36F8FBFF34F8F7B6000BF00BF64
:103A3000FDE70A4B1B68013B084A1360074B1B68F4
:103A4000002B05D100233B603B6883F3118800BF46
:103A500000BF0C37BD4680BC704700BF0C00002083
:103A6000EFF30980BFF36F8F0D4B1A6820E9F00F59
:103A700010602DE908404FF0500080F31188FFF7E7
:103A80000BFA4FF0000080F31188BDE80840196878
:103A90000868B0E8F00F80F30988BFF36F8F7047B4
:103AA0007803002000BF00BF80B582B000AF4FF0A8
:103AB000500383F31188BFF36F8FBFF34F8F7B6089
:103AC00000BFFFF72BF90346002B03D0064B4FF046
:103AD00080521A6000233B603B6883F3118800BF6B
:103AE00000BF0837BD4680BD04ED00E080B400AFE4
:103AF0000A4B00221A600A4B00221A60094B1B680D
:103B0000094AA2FB03239B09084A013B1360034BAC
:103B100007221A6000BFBD4680BC704710E000E07D
:103B200018E000E000000020D34D621014E000E037
:103B300080B485B000AFEFF30583FB60FB680F2B0B
:103B400015D9174AFB6813441B78FB72154B1B7879
:103B5000FA7A9A420BD24FF0500383F31188BFF3E5
:103B60006F8FBFF34F8F7B6000BF00BFFDE70E4B31
:103B70001B6803F4E0620D4B1B689A420BD94FF0AF
:103B8000500383F31188BFF36F8FBFF34F8F3B60F8
:103B900000BF00BFFDE700BF1437BD4680BC7047C3
:103BA000F0E300E0A40400200CED00E0A8040020F5
:103BB00080B58AB000AF78600023FB61FFF702F8A0
:103BC0005A4B1B68002B01D100F016F9584B1A68AC
:103BD0007B681340002B40F090807B68002B1ED048
:103BE00008227B6813447B607B6803F00703002B8B
:103BF00015D07B6823F0070308337B607B6803F0F4
:103C00000703002B0BD04FF0500383F31188BFF351
:103C10006F8FBFF34F8F7B6100BF00BFFDE77B68F5
:103C2000002B6AD0434B1B687A689A4265D8424B96
:103C30003B62414B1B687B6204E07B6A3B627B6AB0
:103C40001B687B627B6A5B687A689A4203D97B6AED
:103C50001B68002BF1D1354B1B687A6A9A424CD015
:103C60003B6A1B6808221344FB617B6A1A683B6A43
:103C70001A607B6A5A687B68D21A08235B009A42F2
:103C800020D97A6A7B681344BB61BB6903F00703E0
:103C9000002B0BD04FF0500383F31188BFF36F8FCD
:103CA000BFF34F8F3B6100BF00BFFDE77B6A5A68DF
:103CB0007B68D21ABB695A607B6A7A685A60B869B5
:103CC00000F0FCF81B4B1A687B6A5B68D31A194A30
:103CD0001360184B1A68194B1B689A4203D2154B94
:103CE0001B68164A13607B6A5A68114B1B681A439B
:103CF0007B6A5A607B6A00221A60FEF771FFFB69DB
:103D000003F00703002B0BD04FF0500383F311880F
:103D1000BFF36F8FBFF34F8FFB6000BF00BFFDE7A6
:103D2000FB6918462837BD4680BD00BFB41000208F
:103D3000C0100020B8100020AC100020BC100020E3
:103D400080B586B000AF78607B687B617B68002BB4
:103D50004AD008235B427A6913447B617B693B61EB
:103D60003B695A68224B1B681340002B0BD14FF064
:103D7000500383F31188BFF36F8FBFF34F8FFB6046
:103D800000BF00BFFDE73B691B68002B0BD04FF065
:103D9000500383F31188BFF36F8FBFF34F8FBB6066
:103DA00000BF00BFFDE73B695A68114B1B68134019
:103DB000002B19D03B691B68002B15D13B695A6851
:103DC0000B4B1B68DB431A403B695A60FEF7FAFE57
:103DD0003B695A68074B1B681344064A13603869ED
:103DE00000F06CF8FEF7FCFE00BF1837BD4680BD42
:103DF000C0100020B810002080B485B000AF4FF490
:103E00004063BB60274BFB60FB6803F00703002B9C
:103E10000CD0FB680733FB60FB6823F00703FB60F3
:103E2000BA68FB68D31A1F4A1344BB60FB687B6007
:103E30001D4A7B6813601C4B00225A607B68BA687D
:103E40001344FB600822FB689B1AFB60FB6823F0AD
:103E50000703FB60FB68154A1360144B1B680022C4
:103E60005A60124B1B6800221A607B683B603B68FB
:103E7000FA68D21A3B685A600C4B1A683B681A60A1
:103E80003B685B680A4A13603B685B68094A1360D9
:103E9000094B4FF000421A6000BF1437BD4680BC8A
:103EA000704700BFAC040020AC100020B41000200C
:103EB000BC100020B8100020C010002080B485B0D5
:103EC00000AF7860274BFB6002E0FB681B68FB607B
:103ED000FB681B687A689A42F7D8FB68BB60FB688E
:103EE0005B68BA6813447A689A4208D1FB685A68DA
:103EF0007B685B681A44FB685A60FB687B607B6880
:103F0000BB607B685B68BA681A44FB681B689A42AE
:103F100018D1FB681A68144B1B689A420DD07B6855
:103F20005A68FB681B685B681A447B685A60FB68C8
:103F30001B681A687B681A6008E00B4B1A687B687C
:103F40001A6003E0FB681A687B681A60FA687B688D
:103F50009A4202D0FB687A681A6000BF1437BD46E7
:103F600080BC7047AC100020B4100020034602440F
:103F7000934200D1704703F8011BF9E7294B70B554
:103F80001B68044683424BD0C369ABB1DB686BB19D
:103F90000025E369DB68595900293BD10435802DA0
:103FA000F7D1E3692046D96800F072F8E36919682F
:103FB00011B1204600F06CF8616911B1204600F0A3
:103FC00067F8E16911B1204600F062F8216B11B188
:103FD000204600F05DF8616B11B1204600F058F802
:103FE000A16B11B1204600F053F8A16C11B120462D
:103FF00000F04EF8616C11B1204600F049F8E16A1A
:1040000011B1204600F044F8236A4BB12046BDE8C8
:10401000704018470E68204600F03AF83146BBE77A
:1040200070BD00BF1000002070B500260C4D0D4C77
:10403000641BA410A64209D100F07EF800260A4DA8
:104040000A4C641BA410A64205D170BD55F8043B70
:1040500098470136EEE755F8043B98470136F2E7FA
:10406000F4410008F4410008F4410008F841000858
:10407000704770470A44914200F1FF3300D1704706
:1040800010B511F8014B914203F8014FF9D110BD61
:1040900038B50546002940D051F8043C0C1F002BD0
:1040A000B8BFE41800F03CF81C4A136833B96360E9
:1040B00014602846BDE8384000F038B8A34208D95B
:1040C000206821188B4201BF19685B6809182160BC
:1040D000EDE71A465B680BB1A342FAD91168501894
:1040E000A0420BD120680144501883421160E0D1F6
:1040F00018685B68084410605360DAE702D90C2343
:104100002B60D6E7206821188B4201BF19685B68D5
:104110000918216063605460CBE738BD00120020AD
:104120000148FFF7A5BF00BFFC1100200148FFF7C1
:10413000A0BF00BFFC110020F8B500BFF8BC08BC50
:104140009E467047F8B500BFF8BC08BC9E46704755
:1041500064656661756C745461736B00504100084E
:104160005D03000800000000000000008000000067
:1041700000000000000000006C65644F6E0000004D
:1041800078410008710300080000000000000000F2
:104190008000000000000000000000006C65644F1B
:1041A000666600009C410008A903000800000000AA
:1041B000000000008000000000000000000000007F
:1041C00049444C45000000000000000000000000D1
:1041D00001020304060708090000000001020304AD
:1041E00002030405060708090A0B0C0D0E0F101038
:0441F00001020000C8
:0441F4003501000889
:0441F80011010008A9
:1041FC000024F4001000000001000000AAAAAAAAE2
:10420C001400002000000000C41000202C1100201D
:10421C0094110020000000000000000000000000CD
:10422C000000000000000000000000000000000082
:10423C000000000000000000000000000000000072
:10424C000000000000000000000000000000000062
:04000005080005C921
:00000001FF
